:100000000C9436010C9455010C9455010C94550137
:100010000C9455010C9455010C9455010C94550108
:100020000C9455010C9455010C9455010C945501F8
:100030000C9455010C9455010C9455010C945501E8
:100040000C9455010C9455010C9455010C945501D8
:100050000C9455010C9455010C9455010C945501C8
:100060000C9455010C9455010C9455010C945501B8
:100070000C9455010C9455010C9455010C945501A8
:100080000C9455010C9455010C945501000000008E
:100090000000005F00000007000700147F147F14B9
:1000A000242A7F2A122313086462364955225000FD
:1000B00005030000001C2241000041221C0014081E
:1000C0003E081408083E08080050300000080808E0
:1000D0000808006060000020100804023E514945F5
:1000E0003E00427F400042615149462141454B312B
:1000F0001814127F1027454545393C4A49493001BB
:10010000710905033649494936064949291E003611
:100110003600000056360000081422410014141462
:100120001414004122140802015109063249794190
:100130003E7E1111117E7F494949363E414141229F
:100140007F4141221C7F494949417F090909013EFC
:100150004149497A7F0808087F00417F41002040DB
:10016000413F017F081422417F404040407F020C04
:10017000027F7F0408107F3E4141413E7F0909090B
:10018000063E4151215E7F091929464649494931B8
:1001900001017F01013F4040403F1F2040201F3FA1
:1001A0004038403F63140814630708700807615122
:1001B000494543007F4141000204081020004141AD
:1001C0007F0004020102044040404040000102045C
:1001D0000020545454787F484444383844444420E0
:1001E000384444487F3854545418087E0901020C9E
:1001F0005252523E7F0804047800447D4000204063
:10020000443D007F1028440000417F40007C0418DA
:1002100004787C0804047838444444387C1414146A
:1002200008081414187C7C0804040848545454200A
:10023000043F4440203C4040207C1C2040201C3C8B
:100240004030403C44281028440C5050503C4464FA
:10025000544C44000836410000007F000000413645
:1002600008001008081008000000000011241FBE3C
:10027000CFEFD0E4DEBFCDBF11E0A0E0B1E0E0EC15
:10028000F7E000E00BBF02C007900D92A43DB1075C
:10029000D9F713E0A4EDB1E001C01D92A63EB1076D
:1002A000E1F70E9439020C94DE030C9400008BE00D
:1002B000809381008DE790E090938900809388007F
:1002C00082E080936F0010928500109284008091EC
:1002D000C8019091C901A091CA01B091CB0180934E
:1002E000D4019093D501A093D601B093D7018FB7D5
:1002F00080688FBF08951092810008956093C801AF
:100300007093C9018093CA019093CB016093D4018B
:100310007093D5018093D6019093D701089581E021
:100320008093D80108958091D4019091D501A09136
:10033000D601B091D7010197A109B1098093D401E9
:100340009093D501A093D601B093D701892B8A2B26
:100350008B2B91F40E948F018091C8019091C9016B
:10036000A091CA01B091CB018093D4019093D501A3
:10037000A093D601B093D7010895EAE7F0E0808119
:10038000806E8083089501962091E303332727FD33
:1003900030958217930714F080E090E0089560E0B4
:1003A00080E00E94B40363E088E40E941B0362E0E3
:1003B00085E60E941B0362E08CE60E941B0362E05C
:1003C0008CE60E941B0362E08FE60E941B0364E13F
:1003D0008AE00E94B40363E087E50E941B0362E0A9
:1003E0008FE60E941B0362E082E70E941B0362E02B
:1003F0008CE60E941B0362E084E60E941B030E94BD
:10040000B9030895CF93DF93EC0199236CF00E9418
:10041000D10268E28C2F0E94B40361E08FE60E9453
:100420001B03CE01059700C0DF91CF910895CF93B4
:10043000DF93EC01009729F480B180E0C1E0D0E0C7
:100440000BC0FC01E150FF4F8081C530D10511F098
:10045000219602C0C0E0D0E068E2681B8AE00E94FA
:10046000B40361E088E50E941B03CE01DF91CF91C8
:10047000089511B88FEF82B984B915B88AB91BB83D
:100480000E94BD010E948D020E94D102D0E0C0E511
:100490008C2F90E00E940202C82F8D2F90E00E94C6
:1004A0001702D82F0E94B90340E050E00BC02F5F25
:1004B0003F4F02C020E030E0283B8BE03807BCF320
:1004C0004F5F5F4F4E315105ACF3E2CF2998662361
:1004D00019F02B9A90E015C02B98FCCF47E050E024
:1004E000491B5109282F30E002C0359527954A95C0
:1004F000E2F720FF02C02C9A01C02C982D9A2D986B
:100500009F5F983058F3299A089560E00E94660230
:10051000089561E00E9466020895CF93DF93219AC7
:10052000229A239A249A259A2A9A299A83EC99E066
:100530000197F1F700C000002A988BE594E4019739
:10054000F1F700C000002A9A299881E20E948502F2
:1005500083E10E94850286E00E94850282EC0E946F
:10056000850280E20E94850289E00E94850280E87F
:100570000E94850280E40E948502C0E0D0E004C0B1
:1005800080E00E9489022196C83F91E0D907C0F31C
:1005900088E00E9485028CE00E948502DF91CF9165
:1005A000089580E80E94850280E40E9485021092EE
:1005B000D1031092D20380E090E005C0FC01E75225
:1005C000FE4F10820196883F21E09207B8F308950C
:1005D000882311F080E201C084E20E948502089520
:1005E000262F26952695269590E034E5239F800DAD
:1005F000911D1124442379F0677021E030E002C09E
:10060000220F331F6A95E2F7FC01E752FE4F80810B
:10061000282B20830895677021E030E002C0220F6C
:10062000331F6A95E2F7FC01E752FE4F2095808167
:10063000282320830895EF92FF920F931F93CF9367
:10064000DF93E82EF62E00E047C02E2D332727FD3E
:10065000309520523109802F6F2D0E94D203F9016D
:10066000EE0FFF1FEE0FFF1FE20FF31FE80FF11D4C
:10067000E457FF4FE491812F0E94D203F0E002C0C3
:10068000F595E7958A95E2F7E0FF0AC06091D203FD
:100690008091D103610F41E0800F0E94F00209C0F8
:1006A0006091D2038091D103610F40E0800F0E94DE
:1006B000F0021F5F01C010E0212F30E0CE01880F53
:1006C000991F880F991F880F991F8C1B9D0B281746
:1006D00039070CF4BACF0F5F202F30E0CF2DD0E0D8
:1006E000CE01880F991F880F991F8C0F9D1F281707
:1006F00039070CF3E1EDF3E08F2D880F880F8F0D94
:100700009081890F8F5F8083843570F01092D103C0
:10071000E2EDF3E08F2D880F880F880F982F9F1937
:100720008081890F8F5F80838091D203803320F096
:100730001092D1031092D203DF91CF911F910F91AC
:10074000FF90EF9008951F93CF93DF93EC01162F46
:1007500004C02196612F0E941B0388818111F9CF6B
:10076000DF91CF911F9108958093D1036093D203BD
:100770000895CF93DF9380E80E94850280E40E9471
:100780008502C0E0D0E007C0FE01E752FE4F808145
:100790000E9489022196C83F81E0D807A8F3DF9123
:1007A000CF910895991B79E004C0991F961708F01E
:1007B000961B881F7A95C9F780950895F894FFCF06
:1007C000050A140A050101010202040101020301E4
:1007D00002020406040204040404040604020404DD
:1007E00004040406000200020403010001020002E6
:1007F00004030100060503040203010006050304C7
:1008000003020100010001000500050006000600CA
:1008100005050505040004000300030002000200B2
:1008200001010101050005000400040003000300AC
:100830000202020205000500040004000300030098
:100840000202020201000100050005000600060088
:100850000505050504000400030003000200020072
:100860000101010100000000A4D082437BD4924327
:10087000A4D0A443719DAE430000C4430000DC43F8
:10088000A4F0F64300D00244010000000561090A0B
:04089000BC020100A5
:00000001FF
