:100000000C943D010C945C010C945C010C945C011B
:100010000C945C010C945C010C945C010C945C01EC
:100020000C945C010C945C010C945C010C945C01DC
:100030000C945C010C945C010C945C010C945C01CC
:100040000C945C010C945C010C945C010C945C01BC
:100050000C945C010C945C010C945C010C945C01AC
:100060000C945C010C945C010C945C010C945C019C
:100070000C945C010C945C010C945C010C945C018C
:100080000C945C010C945C010C945C011C0624062D
:100090002D063C0643064A065106000000000000FB
:1000A000005F00000007000700147F147F14242A5B
:1000B0007F2A122313086462364955225000050333
:1000C0000000001C2241000041221C0014083E08D0
:1000D0001408083E08080050300000080808080806
:1000E000006060000020100804023E5149453E00B7
:1000F000427F400042615149462141454B3118142D
:10010000127F1027454545393C4A4949300171095C
:1001100005033649494936064949291E0036360045
:100120000000563600000814224100141414141460
:1001300000412214080201510906324979413E7EEC
:100140001111117E7F494949363E414141227F418B
:1001500041221C7F494949417F090909013E414922
:10016000497A7F0808087F00417F41002040413FD5
:10017000017F081422417F404040407F020C027FF3
:100180007F0408107F3E4141413E7F090909063E38
:100190004151215E7F0919294646494949310101EA
:1001A0007F01013F4040403F1F2040201F3F40381B
:1001B000403F6314081463070870080761514945FC
:1001C00043007F41410002040810200041417F00AC
:1001D00004020102044040404040000102040020AB
:1001E000545454787F484444383844444420384474
:1001F00044487F3854545418087E0901020C525266
:10020000523E7F0804047800447D40002040443D75
:10021000007F1028440000417F40007C04180478CF
:100220007C0804047838444444387C1414140808C6
:100230001414187C7C080404084854545420043FC7
:100240004440203C4040207C1C2040201C3C40304E
:10025000403C44281028440C5050503C4464544CBA
:1002600044000836410000007F00000041360800CD
:100270001008081008000000000011241FBECFEF76
:10028000D0E4DEBFCDBF14E0A0E0B1E0E6E1F7E1ED
:1002900000E00BBF02C007900D92A031B107D9F763
:1002A00016E0A0E1B4E001C01D92AB36B107E1F762
:1002B0000E94A7060C94890B0C940000CF92DF9249
:1002C000EF92FF920F931F93CF93DF93CDB7DEB7DB
:1002D0002C970FB6F894DEBF0FBECDBF80915706A6
:1002E00090915806892BE1F560E080E00E94590862
:1002F00087E0E7EEF3E09E012F5F3F4F7901D901E0
:1003000001900D928A95E1F78E01085F1F4F809151
:1003100010044AE050E0B80190E00E94440BF7015D
:1003200001900020E9F73197CF018E199F09F8015C
:1003300001900020E9F73197E01BF10B8E0F9F1F12
:1003400001960E94050A6C01B7010E943D0BB8019D
:10035000C6010E94320B61E0C6010E94480847C0F6
:100360008091630690916406892B31F08091650637
:1003700090916606892BD9F587E0E7EEF3E09E01C0
:100380002F5F3F4F7901D90101900D928A95E1F7D6
:100390008E01085F1F4F809110044AE050E0B801C1
:1003A00090E00E94440BF70101900020E9F731979B
:1003B000CF018E199F09F80101900020E9F73197CC
:1003C000E01BF10B8E0F9F1F01960E94050A6C0126
:1003D000B7010E943D0BB801C6010E94320B68E2D2
:1003E00083E20E94590861E0C6010E94480880E04B
:1003F00090E02C960FB6F894DEBF0FBECDBFDF9114
:10040000CF911F910F91FF90EF90DF90CF900895C3
:10041000CF92DF92EF92FF926B017C012091110449
:100420003091120440911304509114040E948C08DE
:10043000882309F458C020E030E0A901C701B601C3
:100440000E948C08811106C0E1E9F0E0808188708B
:10045000808305C0E1E9F0E080818360808328E546
:1004600039E344E75FE3C701B6010E948C088823A3
:100470003CF48FEF9FEF909399008093980027C0F2
:1004800020E034E244EF56E4C701B6010E949E0921
:1004900018162CF4109299001092980018C020E0C1
:1004A00030E040E053E4C701B6010E94A2099B017D
:1004B000AC0160E074E284EF9AE40E9490080E942C
:1004C000F808615071097093990060939800109238
:1004D000950010929400C0921104D0921204E09200
:1004E0001304F0921404FF90EF90DF90CF900895E2
:1004F00080E4809390008BE08093910060E070E056
:10050000CB010E9408020895109290001092910071
:100510000895EAE7F0E08081806E8083089520915D
:10052000780030917900309361062093600681E075
:100530002D3B324008F080E090E00895CF93DF93A8
:1005400020915706309158062130310589F10097E6
:1005500021F08530910561F008C00E948F02C1E052
:10056000892B09F0C0E0D0E005C0EC01219602C063
:10057000C0E0D0E0209741F481E090E090935C06E9
:1005800080935B0680E008C010925C0610925B06C8
:10059000FE01EC5FFE4F808168E2681B8AE00E94EA
:1005A000590861E088E50E94CB078C2F9D2F02C07F
:1005B00080E090E0DF91CF91089520917800309114
:1005C0007900309361062093600681E02C3231403F
:1005D00008F480E090E008950F931F93CF93DF938A
:1005E000EC0180915E0690915F06019709F4B0C01E
:1005F000C130D105A1F0C230D105B1F02097F1F49E
:100600000E94DD02892B29F00E948F02892B21F0A4
:1006100015C0C1E0D0E012C0C1E0D0E00FC08FEF44
:100620008BB9C2E0D0E00AC00E94DD02019731F42C
:100630000E948F02019711F4C0E0D0E0C130D105D3
:1006400009F056C08FEF8BB90091590610915A06E8
:100650000130110591F020F00230110549F132C04E
:100660000E94DD0221E030E0892B11F020E030E033
:1006700030935A062093590625C00E94DD02892B2B
:1006800039F482E090E090935A06809359061AC09C
:100690000E948F02892B29F410925A061092590653
:1006A00011C081E090E090935A06809359060AC0E9
:1006B0000E948F02892B11F401E010E010935A067A
:1006C000009359068091590690915A068130910500
:1006D00041F018F0029749F00BC081E68093620662
:1006E00007C080E88093620603C080E580936206BD
:1006F0006AE08AE00E94590861E08EEE93E00E9471
:10070000480864E18AE00E94590861E087EF93E0BD
:100710000E9448086EE18AE00E94590861E083E087
:1007200094E00E9448086091590670915A066F5FE4
:100730007F4F660F862F880F880F680F80E00E941A
:10074000590861E08FE60E94CB078C2F9D2F02C0D5
:1007500080E090E0DF91CF911F910F910895CF93AA
:10076000DF93EC018091650690916606892BB9F4C0
:10077000C333D105A4F4FE01E85BFE4FE081F0E055
:10078000EE0FFF1FEE0FFF1FE65FFE4F60817181CE
:10079000828193810E940802CE01019623C080913C
:1007A000630690916406892BB9F4CE30D105A4F488
:1007B000FE01E75CFE4FE081F0E0EE0FFF1FEE0F61
:1007C000FF1FE65FFE4F60817181828193810E94ED
:1007D0000802CE01019606C060E070E0CB010E94E5
:1007E0000802CE01DF91CF91089560E080E00E9481
:1007F000590863E08DE40E94CB0762E085E70E9420
:10080000CB0762E083E70E94CB0762E089E60E94A3
:10081000CB0762E083E60E94CB0764E18AE00E9496
:10082000590863E087E40E94CB0762E081E60E94FA
:10083000CB0762E08DE60E94CB0762E085E60E946E
:10084000CB07089560E080E00E94590863E087E4E8
:100850000E94CB0762E081E60E94CB0762E08DE652
:100860000E94CB0762E085E60E94CB0764E18AE044
:100870000E94590863E08FE40E94CB0762E086E79C
:100880000E94CB0762E085E60E94CB0762E082E728
:100890000E94CB07089560E080E00E94590863E061
:1008A00087E40E94CB0762E081E60E94CB0762E00A
:1008B0008DE60E94CB0762E085E60E94CB0764E1EB
:1008C0008AE00E94590863E083E40E94CB0762E05B
:1008D0008CE60E94CB0762E085E60E94CB0762E0CF
:1008E00081E60E94CB0762E082E70E94CB07089571
:1008F0002FEF280FC2F1332727FD30954091620674
:1009000050E0241735077CF54091590650915A065E
:100910004115510531F4F901EC5DFC4F6081613006
:1009200091F04130510531F4F901ED5DFD4F6081E9
:10093000613049F042305105B1F4F901EE57FE4FF4
:100940002081213081F420915B0630915C06232BBD
:1009500031F4209110042F5F2093100404C01092F2
:1009600064061092630606962091620630E08217B4
:100970009307C8F52091590630915A062115310583
:1009800031F4FC01EC5DFC4F4081413009F1213034
:10099000310531F4FC01ED5DFD4F40814130D9F06E
:1009A0002230310501F5FC01EE57FE4F8081813088
:1009B000D1F414C0FC01E050FF4F2081222334F415
:1009C000FC01E050FF4F2FE420830895019608C0FA
:1009D00080E090E005C080E090E002C080E090E020
:1009E000853091053CF308951F93CF93DF932091B9
:1009F0005706309158062130310509F442C0209144
:100A0000620630E08217930724F010926606109277
:100A10006506EC010E947804DD231CF4CE010196EA
:100A200034C08091620690E0C817D9076CF58091B8
:100A3000590690915A068130910549F018F00297B5
:100A400059F00EC0FE01EB57FC4F108109C0FE01AA
:100A5000ED55FD4F108104C0FE01EE52FE4F108196
:100A6000E12FF0E0EE0FFF1FEE0FFF1FE65FFE4FDE
:100A700060817181828193810E940802CE0101967A
:100A800004C08AEF9FEF01C0CE01DF91CF911F918B
:100A90000895CF93DF93EC011816190654F468E219
:100AA0000E94590861E08FE60E94CB07CE010597AE
:100AB00002C08FEF9FEFDF91CF9108950F931F93A7
:100AC000CF93DF938091570690915806019799F044
:100AD000C0E0D0E00DC08E0100501F4FF8018081B2
:100AE000992787FD90950E944905F80180832196FA
:100AF000C530D10584F380E090E0DF91CF911F9164
:100B00000F9108951092100481E090E09093640694
:100B100080936306909366068093650690935806CB
:100B20008093570690935F0680935E0690935C06D1
:100B300080935B0610925D0610925A061092590639
:100B400060E070E0CB010E940802EFE0F6E081E097
:100B500090E0A0E0B0E082839383A483B583868392
:100B60009783A087B187118210822EE932E0338704
:100B7000228742E050E060E070E046875787608B54
:100B8000718B428B538B648B758B2AEF3FEF3587CC
:100B9000248724EF34E0378B268B828F938FA48FAA
:100BA000B58F868F978FA0A3B1A3118E108E2EE5DF
:100BB00035E033A322A386A397A3A0A7B1A782A75A
:100BC00093A7A4A7B5A715A214A220E136E037A7E2
:100BD00026A782AB93ABA4ABB5AB86AB97ABA0AF6C
:100BE000B1AF11AA10AA2EE531E033AF22AF809346
:100BF0004D0690934E06A0934F06B09350068093F7
:100C0000510690935206A0935306B093540615AE26
:100C100014AE8CEE92E0909356068093550608959C
:100C2000CF93DF93EC018730910508F03FC0FC01C2
:100C3000EA5BFF4F0C9483080E948F02C1E0892B6E
:100C400009F0C0E0D0E032C086B190E08095909588
:100C500081FF2CC0C2E0D0E029C080916306909152
:100C60006406892B09F18091650690916606892BAF
:100C7000E9F4C4E0D0E01AC00E948F02892BB1F4DD
:100C8000C5E0D0E013C00E948F02892B79F4C5E043
:100C9000D0E00CC00E948F02892B41F0C6E0D0E06A
:100CA00005C0C0E0D0E002C0C3E0D0E0309902C08F
:100CB000C6E0D0E0C230D105B9F034F4209761F03D
:100CC000C130D10561F03FC0C430D10541F1BCF065
:100CD000C630D105A1F137C00E94F50334C010928F
:100CE0005F0610925E062FC081E090E090935F0651
:100CF00080935E06109258061092570624C081E039
:100D000090E0909358068093570680915D0690E09E
:100D10000E94AF0380935D060E94220414C081E00C
:100D200090E090935806809357060E944B04809160
:100D30005D0690E00E94AF0380935D0604C00E94B0
:100D400082050E94F503CE01DF91CF91089511B87D
:100D50008FEF82B984B915B817B888B98AB91BB8AA
:100D60000E9489020E9478020E943D070E9482052B
:100D70000E948107F12C43C0CF2DD0E0CE01880F17
:100D8000991F8C0F9D1F880F991F880F991FFC01B9
:100D9000E15FF94F4681578160857185828193813A
:100DA000A481B581481759076A077B0778F08F013E
:100DB000DF010284F385E02D8D919C910995F80166
:100DC0009183808316821782108611869E01220FDE
:100DD000331FC9018C0F9D1F880F991F880F991F02
:100DE000FC01E15FF94F86819781A085B18501966D
:100DF000A11DB11D86839783A087B187F394B5E0C9
:100E0000BF1508F0B9CF0E945E0820E030E00AC0AC
:100E1000019602C080E090E0883BEBE09E07C4F3BF
:100E20002F5F3F4F2E313105ACF3A2CF29986623B7
:100E300019F02B9A90E015C02B98FCCF47E050E0BA
:100E4000491B5109282F30E002C0359527954A9556
:100E5000E2F720FF02C02C9A01C02C982D9A2D9801
:100E60009F5F983058F3299A089560E00E94160712
:100E7000089561E00E9416070895CF93DF93219AA9
:100E8000229A239A249A259A2A9A299A83EC99E0FD
:100E90000197F1F700C000002A988BE594E40197D0
:100EA000F1F700C000002A9A299881E20E943507D4
:100EB00083E10E94350786E00E94350782EC0E949C
:100EC000350780E20E94350789E00E94350780E8F7
:100ED0000E94350780E40E943507C0E0D0E004C0DE
:100EE00080E00E9439072196C83F91E0D907C0F3FE
:100EF00088E00E9435078CE00E943507DF91CF9192
:100F0000089580E80E94350780E40E94350710921A
:100F10000D0610920E0680E090E005C0FC01EB5E2D
:100F2000FB4F10820196883F21E09207B8F30895A5
:100F3000882311F080E201C084E20E943507089501
:100F4000262F26952695269590E034E5239F800D43
:100F5000911D1124442379F0677021E030E002C034
:100F6000220F331F6A95E2F7FC01EB5EFB4F808195
:100F7000282B20830895677021E030E002C0220F03
:100F8000331F6A95E2F7FC01EB5EFB4F20958081F1
:100F9000282320830895EF92FF920F931F93CF93FE
:100FA000DF93E82E062FF12C3CC02E2D332727FD92
:100FB0003095205231098F2D602F0E947708F9015A
:100FC000EE0FFF1FEE0FFF1FE20FF31FE80FF11DE3
:100FD000E656FF4FE491812F0E947708F0E002C0AF
:100FE000F595E7958A95E2F7E0FF09C060910E0656
:100FF00080910D06610F41E08F0D0E94A0071F5FD9
:1010000001C010E0212F30E0CE01880F991F880F1A
:10101000991F880F991F8C1B9D0B281739072CF2DD
:10102000F3942F2D30E0C02FD0E0CE01880F991F10
:10103000880F991F8C0F9D1F2817390714F3EDE0B7
:10104000F6E0802F880F880F800F9081890F8F5FC7
:101050008083843570F010920D06EEE0F6E0802F6C
:10106000880F880F880F982F901B8081890F8F5FC2
:10107000808380910E06803320F010920D0610922E
:101080000E06DF91CF911F910F91FF90EF90089581
:101090001F93CF93DF93EC01162F04C02196612F8D
:1010A0000E94CB0788818111F9CFDF91CF911F91E9
:1010B000089580930D0660930E060895CF93DF93F5
:1010C00080E80E94350780E40E943507C0E0D0E048
:1010D00007C0FE01EB5EFB4F80810E94390721961D
:1010E000C83F81E0D807A8F3DF91CF910895991BFD
:1010F00079E004C0991F961708F0961B881F7A950F
:10110000C9F780950895EE0FFF1F0024001C0BBE49
:101110000790F691E02D09949CD008F481E00895A1
:101120000CD0D2C0CAD040F0C1D030F021F45F3F23
:1011300019F0B3C05111FCC0B6C0D7D098F39923B1
:10114000C9F35523B1F3951B550BBB27AA2762178B
:101150007307840738F09F5F5F4F220F331F441FD0
:10116000AA1FA9F333D00E2E3AF0E0E830D0915008
:101170005040E695001CCAF729D0FE2F27D0660FF5
:10118000771F881FBB1F261737074807AB07B0E834
:1011900009F0BB0B802DBF01FF2793585F4F2AF04A
:1011A0009E3F510568F079C0C3C05F3FECF3983EA5
:1011B000DCF3869577956795B795F7959F5FC9F7A7
:1011C000880F911D9695879597F90895E1E0660F30
:1011D000771F881FBB1F621773078407BA0720F0A9
:1011E000621B730B840BBA0BEE1F88F7E095089512
:1011F00004D06894B1119CC008957FD088F09F57A7
:1012000090F0B92F9927B751A0F0D1F0660F771F52
:10121000881F991F1AF0BA95C9F712C0B13081F032
:1012200086D0B1E0089583C0672F782F8827B85FF4
:1012300039F0B93FCCF3869577956795B395D9F793
:101240003EF490958095709561957F4F8F4F9F4F9D
:101250000895990F0008550FAA0BE0E8FEEF161647
:101260001706E807F907C0F012161306E407F5079A
:1012700098F0621B730B840B950B39F40A2661F00E
:10128000232B242B252B21F408950A2609F4A140B1
:10129000A6958FEF811D811D089597F99F6780E8BE
:1012A00070E060E008959FEF80EC089500240A94B8
:1012B0001616170618060906089500240A94121631
:1012C0001306140605060895092E0394000C11F464
:1012D000882352F0BB0F40F4BF2B11F460FF04C011
:1012E0006F5F7F4F8F4F9F4F089557FD9058440F6A
:1012F000551F59F05F3F71F04795880F97FB991F75
:1013000061F09F3F79F08795089512161306140631
:10131000551FF2CF4695F1DF08C0161617061806BE
:10132000991FF1CF86957105610508940895E89499
:10133000BB2766277727CB0197F908958ADF08F442
:101340008FEF08950BD0C0CFB1DF28F0B6DF18F0D3
:10135000952309F0A2CFA7CF1124EACFC6DFA0F3CF
:10136000959FD1F3950F50E0551F629FF001729F3A
:10137000BB27F00DB11D639FAA27F00DB11DAA1F59
:10138000649F6627B00DA11D661F829F2227B00DA6
:10139000A11D621F739FB00DA11D621F839FA00D31
:1013A000611D221F749F3327A00D611D231F849F81
:1013B000600D211D822F762F6A2F11249F575040D8
:1013C0008AF0E1F088234AF0EE0FFF1FBB1F661F73
:1013D000771F881F91505040A9F79E3F510570F02C
:1013E0005CCFA6CF5F3FECF3983EDCF38695779514
:1013F0006795B795F795E7959F5FC1F7FE2B880F27
:10140000911D9695879597F90895CF93DF93823034
:10141000910510F482E090E0E0916906F0916A068F
:1014200020E030E0C0E0D0E0309711F14081518100
:1014300048175907C0F04817590761F48281938112
:10144000209719F09B838A832BC090936A06809320
:10145000690626C02115310519F04217530718F403
:101460009A01BE01DF01EF010280F381E02DDCCFA4
:101470002115310509F1281B390B2430310590F471
:1014800012968D919C9113976115710521F0FB01C6
:101490009383828304C090936A0680936906FD015A
:1014A000329644C0FD01E20FF31F819391932250C5
:1014B00031092D933C933AC020916706309168061C
:1014C000232B41F420913001309131013093680693
:1014D0002093670620912E0130912F0121153105AF
:1014E00041F42DB73EB74091320150913301241B96
:1014F000350BE0916706F0916806E217F307A0F458
:101500002E1B3F0B2817390778F0AC014E5F5F4F59
:101510002417350748F04E0F5F1F5093680640931D
:1015200067068193919302C0E0E0F0E0CF01DF9184
:10153000CF9108950F931F93CF93DF93009709F4F2
:101540008CC0FC01329713821282009169061091BF
:101550006A060115110581F420813181820F931FE4
:1015600020916706309168062817390779F5F093BE
:101570006806E093670671C0D80140E050E0AE17FE
:10158000BF0750F412962D913C911397AD01211590
:10159000310509F1D901F3CF9D01DA0133832283AB
:1015A00060817181860F971F8217930769F4EC01A0
:1015B00028813981260F371F2E5F3F4F31832083CB
:1015C0008A819B8193838283452B29F4F0936A0659
:1015D000E093690642C01396FC93EE931297ED01D7
:1015E000499159919E01240F351FE217F30771F4B9
:1015F00080819181840F951F029611969C938E9302
:101600008281938113969C938E931297E0E0F0E091
:10161000D80112968D919C911397009719F0F801BB
:101620008C01F6CF8D919C9198012E5F3F4F820FD8
:10163000931F20916706309168062817390769F4CF
:10164000309729F410926A061092690602C013823C
:1016500012821093680600936706DF91CF911F9165
:101660000F910895FB01DC010D900020E9F711971F
:1016700001900D920020E1F70895FB01DC0101903B
:101680000D920020E1F70895FB019F01E89442309C
:10169000C4F04532B4F44A3029F497FB1EF4909517
:1016A00081959F4F642F77270E94750B805D8A3349
:1016B0000CF0895D8193CB010097A1F716F45DE2F0
:1016C00051931082C9010C94650BDC01FC01672F5A
:1016D00071917723E1F7329704C07C916D93708309
:1016E0006291AE17BF07C8F30895AA1BBB1B51E157
:1016F00007C0AA1FBB1FA617B70710F0A61BB70B82
:10170000881F991F5A95A9F780959095BC01CD0126
:061710000895F894FFCFDC
:10171600FFFFFFFFFF050A0F0A0500000000A4D027
:1017260082437BD49243A4D0A443719DAE43000070
:10173600C4430000DC43A4F0F64300D0024400009A
:101746006B062000054F05060E0000000100010192
:10175600010101010101003300000004050607062E
:101766000708080503030304050607060708080813
:10177600050505040506070607080805030305040D
:101786000403020203010101080808092C01BC0236
:1017960006500100000000000000010000000000EB
:1017A6000000010000000000000001000000000031
:1017B6000000010000000000000001000000010020
:1017C6000000010000000000000001000000000011
:1017D60000000100000001000000010000000100FF
:1017E60000000100030000000300010003000000E8
:1017F60003000300030405000300040004050200BF
:1018060002000300030405000800060606000500A2
:1018160000000300030405000300040004050200A1
:10182600020003000304020002000101010108088E
:101836000808800100000000000000010000000010
:10184600000000010000000100000001000000008F
:101856000000000100000000000000010000000080
:10186600000000010000000100000001000000006F
:101876000000000100000000000000010000000060
:10188600000000010000000100000001000000004F
:101896000000000100000000000000010000000040
:1018A600000000010000000100000001000000002F
:1018B600000000030003000303030003000300030A
:1018C60003030003000500010101020303030300F3
:1018D60000000004000400040004000400030003E8
:1018E60000030003030200020203030202020205D0
:1018F60005050503000300030303000300030003BB
:1019060003030003000500010101020303030300B2
:1019160000000004000400040004000400030003A7
:101926000003000500050504040202010101010887
:101936000808086100010000000000000001000026
:10194600000000000001000000000000000100008F
:10195600000100000001000000000000000100007E
:10196600000100000001000000000000000100006E
:10197600000100000001000000000000000100005E
:10198600000100000001000000000000000100004E
:10199600000100000000010001000500050006002E
:1019A6000600050505050400040003000300020007
:1019B6000200010101010500050004000400030006
:1019C60003000202020205000500040004000300F1
:1019D60003000202020201000100050005000600E4
:1019E60006000505050504000400030003000200C7
:1019F6000200010101010353636F72653A0041421F
:101A06004320536F6E67004A696E676C65204265B6
:101A16006C6C00466C6F77657220536F6E670000C2
:00000001FF
