:100000000C9436010C9455010C9455010C94550137
:100010000C9455010C9455010C9455010C94550108
:100020000C9455010C9455010C9455010C945501F8
:100030000C9455010C9455010C9455010C945501E8
:100040000C9455010C9455010C9455010C945501D8
:100050000C9455010C9455010C9455010C945501C8
:100060000C9455010C9455010C9455010C945501B8
:100070000C9455010C9455010C9455010C945501A8
:100080000C9455010C9455010C945501000000008E
:100090000000005F00000007000700147F147F14B9
:1000A000242A7F2A122313086462364955225000FD
:1000B00005030000001C2241000041221C0014081E
:1000C0003E081408083E08080050300000080808E0
:1000D0000808006060000020100804023E514945F5
:1000E0003E00427F400042615149462141454B312B
:1000F0001814127F1027454545393C4A49493001BB
:10010000710905033649494936064949291E003611
:100110003600000056360000081422410014141462
:100120001414004122140802015109063249794190
:100130003E7E1111117E7F494949363E414141229F
:100140007F4141221C7F494949417F090909013EFC
:100150004149497A7F0808087F00417F41002040DB
:10016000413F017F081422417F404040407F020C04
:10017000027F7F0408107F3E4141413E7F0909090B
:10018000063E4151215E7F091929464649494931B8
:1001900001017F01013F4040403F1F2040201F3FA1
:1001A0004038403F63140814630708700807615122
:1001B000494543007F4141000204081020004141AD
:1001C0007F0004020102044040404040000102045C
:1001D0000020545454787F484444383844444420E0
:1001E000384444487F3854545418087E0901020C9E
:1001F0005252523E7F0804047800447D4000204063
:10020000443D007F1028440000417F40007C0418DA
:1002100004787C0804047838444444387C1414146A
:1002200008081414187C7C0804040848545454200A
:10023000043F4440203C4040207C1C2040201C3C8B
:100240004030403C44281028440C5050503C4464FA
:10025000544C44000836410000007F000000413645
:1002600008001008081008000000000011241FBE3C
:10027000CFEFD0E4DEBFCDBF11E0A0E0B1E0ECEC09
:10028000F7E000E00BBF02C007900D92A43DB1075C
:10029000D9F713E0A4EDB1E001C01D92A63EB1076D
:1002A000E1F70E9402020C94E4030C9400008BE03E
:1002B000809381008DE790E090938900809388007F
:1002C00082E080936F0010928500109284008091EC
:1002D000C3019091C401A091C501B091C601809362
:1002E000D4019093D501A093D601B093D7018FB7D5
:1002F00080688FBF08951092810008956093C301B4
:100300007093C4018093C5019093C6016093D4019A
:100310007093D5018093D6019093D701089581E021
:100320008093D80108958091D4019091D501A09136
:10033000D601B091D7010197A109B1098093D401E9
:100340009093D501A093D601B093D701892B8A2B26
:100350008B2B91F40E948F018091C3019091C40175
:10036000A091C501B091C6018093D4019093D501AD
:10037000A093D601B093D7010895EAE7F0E0808119
:10038000806E8083089501962091E303332727FD33
:1003900030958217930714F080E090E0089560E0B4
:1003A00080E00E94AB0363E088E40E94120362E0F5
:1003B00085E60E94120362E08CE60E94120362E06E
:1003C0008CE60E94120362E08FE60E94120364E151
:1003D0008AE00E94AB0363E087E50E94120362E0BB
:1003E0008FE60E94120362E082E70E94120362E03D
:1003F0008CE60E94120362E084E60E9412030E94CF
:10040000B00308958FEF84B915B88AB91BB80E945C
:10041000BD010E9484020E94C80261E08DEC91E05F
:100420000E949A030E94B0032FE38DE093E02150D5
:1004300080409040E1F700C000000E94570161E059
:1004400070E080E090E00E947E01C0E0D0E09E017C
:10045000369527953695279536952795A5ECB0E2E4
:100460000E94C903929582958F7089279F70892772
:1004700048EE53E0849F9001859F300D949F300D8E
:100480001124C217D30789F40E94C80262E080E3F6
:100490000E9412030E94B0032FE38DE093E02150ED
:1004A00080409040E1F700C000008091D80188238F
:1004B000E1F31092D8012196CACF2998662319F04A
:1004C0002B9A90E015C02B98FCCF47E050E0491BD9
:1004D0005109282F30E002C0359527954A95E2F75B
:1004E00020FF02C02C9A01C02C982D9A2D989F5F56
:1004F000983058F3299A089560E00E945D020895AB
:1005000061E00E945D020895CF93DF93219A229AC1
:10051000239A249A259A2A9A299A83EC99E001979A
:10052000F1F700C000002A988BE594E40197F1F7F9
:1005300000C000002A9A299881E20E947C0283E18F
:100540000E947C0286E00E947C0282EC0E947C0277
:1005500080E20E947C0289E00E947C0280E80E9486
:100560007C0280E40E947C02C0E0D0E004C080E015
:100570000E9480022196C83F91E0D907C0F388E02D
:100580000E947C028CE00E947C02DF91CF91089552
:1005900080E80E947C0280E40E947C021092D103D9
:1005A0001092D20380E090E005C0FC01E752FE4FBC
:1005B00010820196883F21E09207B8F308958823BE
:1005C00011F080E201C084E20E947C020895262F8F
:1005D00026952695269590E034E5239F800D911D64
:1005E0001124442379F0677021E030E002C0220F2B
:1005F000331F6A95E2F7FC01E752FE4F8081282BFA
:1006000020830895677021E030E002C0220F331F7D
:100610006A95E2F7FC01E752FE4F2095808128237E
:1006200020830895EF92FF920F931F93CF93DF9350
:10063000E82EF62E00E047C02E2D332727FD3095FB
:1006400020523109802F6F2D0E94D803F901EE0F3F
:10065000FF1FEE0FFF1FE20FF31FE80FF11DE4571E
:10066000FF4FE491812F0E94D803F0E002C0F5957E
:10067000E7958A95E2F7E0FF0AC06091D203809186
:10068000D103610F41E0800F0E94E70209C0609131
:10069000D2038091D103610F40E0800F0E94E702F6
:1006A0001F5F01C010E0212F30E0CE01880F991F9D
:1006B000880F991F880F991F8C1B9D0B28173907CE
:1006C0000CF4BACF0F5F202F30E0CF2DD0E0CE0159
:1006D000880F991F880F991F8C0F9D1F28173907A6
:1006E0000CF3E1EDF3E08F2D880F880F8F0D9081D3
:1006F000890F8F5F8083843570F01092D103E2ED13
:10070000F3E08F2D880F880F880F982F9F19808115
:10071000890F8F5F80838091D203803320F0109205
:10072000D1031092D203DF91CF911F910F91FF90CF
:10073000EF9008951F93CF93DF93EC01162F04C021
:100740002196612F0E94120388818111F9CFDF91D8
:10075000CF911F9108958093D1036093D2030895A0
:10076000CF93DF9380E80E947C0280E40E947C02A9
:10077000C0E0D0E007C0FE01E752FE4F80810E943A
:1007800080022196C83F81E0D807A8F3DF91CF917E
:100790000895A29FB001B39FC001A39F700D811D5A
:1007A0001124911DB29F700D811D1124911D08957A
:1007B000991B79E004C0991F961708F0961B881FB3
:0C07C0007A95C9F780950895F894FFCF52
:1007CC0001010102020401010203010202040604F8
:1007DC0002040404040406040204040404040600D1
:1007EC0002000204030100010200020403010006DE
:1007FC0005030402030100060503040302010001C2
:10080C0000010005000500060006000505050504AD
:10081C0000040003000300020002000101010105B5
:10082C00000500040004000300030002020202059C
:10083C000005000400040003000300020202020190
:10084C00000100050005000600060005050505046D
:10085C00000400030003000200020001010101007A
:10086C00000000A4D082437BD49243A4D0A4437153
:10087C009DAE430000C4430000DC43A4F0F64300EB
:10088C00D002440100000061090ABC020148656CF9
:04089C006C6F00007D
:00000001FF
