:100000000C9448010C9467010C9467010C946701EF
:100010000C9467010C9467010C9467010C946701C0
:100020000C9467010C9467010C9467010C946701B0
:100030000C9467010C9467010C9467010C946701A0
:100040000C9467010C9467010C9467010C94670190
:100050000C9467010C9467010C9467010C94670180
:100060000C9467010C9467010C9467010C94670170
:100070000C9467010C9467010C9467010C94670160
:100080000C9467010C9467010C946701D507DD0798
:10009000E607EF07F80707080E0815081C082E08E2
:1000A00031088908360841084C0855088908830832
:1000B000000000000000005F0000000700070014BF
:1000C0007F147F14242A7F2A12231308646236497E
:1000D0005522500005030000001C2241000041226F
:1000E0001C0014083E081408083E080800503000A0
:1000F00000080808080800606000002010080402DA
:100100003E5149453E00427F4000426151494621EF
:1001100041454B311814127F1027454545393C4A5B
:1001200049493001710905033649494936064949AB
:10013000291E003636000000563600000814224101
:100140000014141414140041221408020151090669
:10015000324979413E7E1111117E7F494949363E2F
:10016000414141227F4141221C7F494949417F0948
:100170000909013E4149497A7F0808087F00417F0B
:1001800041002040413F017F081422417F40404010
:10019000407F020C027F7F0408107F3E4141413EB8
:1001A0007F090909063E4151215E7F09192946460A
:1001B0004949493101017F01013F4040403F1F2033
:1001C00040201F3F4038403F08CA3DCA080708701A
:1001D00008076151494543007F414100020408106E
:1001E000200041417F0004020102044040404040A1
:1001F000000102040020545454787F4844443838A5
:1002000044444420384444487F3854545418087EA9
:100210000901020C5252523E7F0804047800447DCA
:1002200040002040443D007F1028440000417F40B2
:10023000007C041804787C0804047838444444386A
:100240007C14141408081414187C7C08040408484E
:1002500054545420043F4440203C4040207C1C2007
:1002600040201C3C4030403C44281028440C505056
:10027000503C4464544C44000836410000007F0068
:1002800000004136080010080810080000000000B7
:1002900011241FBECFEFD0E4DEBFCDBF14E0A0E03D
:1002A000B1E0E8E0FBE100E00BBF02C007900D9277
:1002B000AA32B107D9F716E0AAE2B4E001C01D9254
:1002C000A63AB107E1F70E948D080C94820D0C94B8
:1002D0000000CF92DF92EF92FF920F931F93CF9384
:1002E000DF93CDB7DEB72C970FB6F894DEBF0FBE05
:1002F000CDBF80918F0690919006892BE1F560E04B
:1003000080E00E94430A87E0E9EEF3E09E012F5F60
:100310003F4F7901D90101900D928A95E1F78E0145
:10032000085F1F4F80918E064AE050E0B80190E0D0
:100330000E943D0DF70101900020E9F73197CF01B0
:100340008E199F09F80101900020E9F73197E01B11
:10035000F10B8E0F9F1F01960E94FE0B6C01B701DF
:100360000E94360DB801C6010E942B0D61E0C60146
:100370000E94320A47C080919E0690919F06892B69
:1003800031F08091A0069091A106892BD9F587E0E4
:10039000E9EEF3E09E012F5F3F4F7901D901019013
:1003A0000D928A95E1F78E01085F1F4F80918E06AE
:1003B0004AE050E0B80190E00E943D0DF701019045
:1003C0000020E9F73197CF018E199F09F8010190BC
:1003D0000020E9F73197E01BF10B8E0F9F1F01966C
:1003E0000E94FE0B6C01B7010E94360DB801C601D8
:1003F0000E942B0D68E283E20E94430A61E0C6017D
:100400000E94320A80E090E02C960FB6F894DEBF8E
:100410000FBECDBFDF91CF911F910F91FF90EF9055
:10042000DF90CF900895CF92DF92EF92FF926B0111
:100430007C0120912E0430912F0440913004509182
:1004400031040E94850A882309F458C020E030E076
:10045000A901C701B6010E94850A811106C0E1E920
:10046000F0E080818870808305C0E1E9F0E0808160
:100470008360808328E539E344E75FE3C701B60181
:100480000E94850A88233CF48FEF9FEF9093990098
:100490008093980027C020E034E244EF56E4C7017F
:1004A000B6010E94970B18162CF410929900109226
:1004B000980018C020E030E040E053E4C701B601E6
:1004C0000E949B0B9B01AC0160E074E284EF9AE414
:1004D0000E94890A0E94F10A615071097093990083
:1004E000609398001092950010929400C0922E0490
:1004F000D0922F04E0923004F0923104FF90EF90FC
:10050000DF90CF900895CF93DF93EC018091A00608
:100510009091A106892BB9F4C433D105A4F4FE014E
:10052000E45DFE4FE081F0E0EE0FFF1FEE0FFF1FD6
:10053000EB53FC4F60817181828193810E94130291
:10054000CE01019620C080919E0690919F06892B36
:10055000B9F4CE30D105B4F4FE01E35EFE4FE08184
:10056000F0E0EE0FFF1FEE0FFF1FEB53FC4F60811B
:100570007181828193810E941302CE01019603C092
:10058000CE0101C0CE01DF91CF91089580E4809328
:1005900090008BE08093910060E070E0CB010E94BE
:1005A0001302089510929000109291000895EAE7C6
:1005B000F0E08081806E80830895209178003091F2
:1005C000790030939C0620939B0681E02D3B3240BE
:1005D00008F080E090E00895CF93DF9320918F069C
:1005E000309190062130310589F1009721F0853056
:1005F000910561F008C00E94DD02C1E0892B09F07D
:10060000C0E0D0E005C0EC01219602C0C0E0D0E01F
:10061000209741F481E090E09093980680939706AC
:1006200080E008C01092980610929706FE01EC5FD9
:10063000FE4F808168E2681B8AE00E94430A61E005
:1006400088E50E94B5098C2F9D2F02C080E090E0C4
:10065000DF91CF9108952091780030917900309307
:100660009C0620939B0681E02C32314008F480E008
:1006700090E008950F931F93CF93DF93EC01809147
:10068000990690919A06019709F4ACC0C130D10542
:10069000F9F0C230D10589F02097E1F40E942B03D4
:1006A000892B29F00E94DD02892B21F013C0C1E0C3
:1006B000D0E010C0C1E0D0E00DC00E942B03019734
:1006C00049F40E94DD02019729F4C0E0D0E002C0A5
:1006D000C2E0D0E0C130D10509F054C000919106CC
:1006E000109192060130110591F020F002301105B1
:1006F00049F132C00E942B0321E030E0892B11F038
:1007000020E030E0309392062093910625C00E94AD
:100710002B03892B39F482E090E09093920680932A
:1007200091061AC00E94DD02892B29F410929206CC
:100730001092910611C081E090E090939206809310
:1007400091060AC00E94DD02892B11F401E010E03D
:1007500010939206009391068091910690919206D3
:100760008130910541F018F0029749F00BC081E605
:1007700080939D0607C080E880939D0603C080E5B6
:1007800080939D066AE08AE00E94430A61E080EF60
:1007900093E00E94320A64E18AE00E94430A61E029
:1007A00089EF93E00E94320A6EE18AE00E94430AD8
:1007B00061E085E094E00E94320A609191067091B8
:1007C00092066F5F7F4F660F862F880F880F680F26
:1007D00080E00E94430A61E08FE60E94B5098C2FF9
:1007E0009D2F02C080E090E0DF91CF911F910F918B
:1007F0000895CF93DF93EC01809193069091940636
:10080000019709F4A9C0C130D105F9F0C230D10572
:1008100089F02097E1F40E942B03892B29F00E9494
:10082000DD02892B21F013C0C1E0D0E010C0C1E08F
:10083000D0E00DC00E942B03019749F40E94DD0215
:10084000019729F4C0E0D0E002C0C2E0D0E0C1309E
:10085000D10509F04BC00E942B03892B89F48091AC
:10086000950690919606019690939606809395062C
:10087000049730F083E090E090939606809395067D
:100880000E94DD02892B49F480919506909196068D
:100890000197909396068093950680919506909186
:1008A00096068130910571F030F08230910589F023
:1008B0000397B1F01BC088EB9BE090932D068093CB
:1008C0002C0614C080ED97E090932D0680932C06A3
:1008D0000DC088EE93E090932D0680932C0606C001
:1008E00088EB9BE090932D0680932C0665E08AE0D0
:1008F0000E94430A61E081E194E00E94320A6FE0C5
:100900008AE00E94430A61E086E194E00E94320A94
:1009100069E18AE00E94430A61E08DE194E00E946F
:10092000320A63E28AE00E94430A61E082E294E0D4
:100930000E94320A60919506660F862F880F880FF5
:10094000680F6B5F80E00E94430A61E08FE60E94BF
:10095000B5098C2F9D2F02C080E090E0DF91CF91F0
:100960000895CF93DF9380912D0481110BC0809166
:100970002C048F5F80932C0485306CF081E0809391
:100980002D0409C080912C04815080932C041816EA
:1009900014F010922D0460E080E00E94430A63E0AE
:1009A0008DE40E94B50962E085E70E94B50962E026
:1009B00083E70E94B50962E089E60E94B50962E01A
:1009C00083E60E94B50964E18AE00E94430A63E07D
:1009D00087E40E94B50962E081E60E94B50962E001
:1009E0008DE60E94B50962E085E60E94B509CBE17B
:1009F00019C080912C046C2F681B41E088E40E9490
:100A00008A0980912C046C2F681B41E089E40E94C4
:100A10008A0980912C046C2F681B41E08AE40E94B3
:100A20008A09CF5FC53228F3C1E409C080912C0444
:100A300068E2681B41E08C2F0E948A09CF5FCB34AB
:100A4000A8F3C2E411C080912C0467E2681B41E066
:100A50008C2F0E948A0980912C0469E2681B41E076
:100A60008C2F0E948A09CF5FCA3468F3C3E411C097
:100A700080912C0466E2681B41E08C2F0E948A0959
:100A800080912C046AE2681B41E08C2F0E948A0945
:100A9000CF5FC93468F3D0E017C0CBE4CD0F0AC0F4
:100AA00080912C046D2F681B655E41E08C2F0E94A5
:100AB0008A09CF5F4C2F50E02D2F30E0205B3F4F55
:100AC000421753076CF3DF5FD33038F3DF91CF91D8
:100AD000089580ED97E090932D0680932C0660E0BA
:100AE00080E00E94430A63E087E40E94B50962E067
:100AF00081E60E94B50962E08DE60E94B50962E0D8
:100B000085E60E94B50964E18AE00E94430A63E039
:100B10008FE40E94B50962E086E70E94B50962E0B1
:100B200085E60E94B50962E082E70E94B509089552
:100B300080ED97E090932D0680932C0680912B04F6
:100B400081110BC080912A048F5F80932A04833027
:100B50006CF081E080932B0409C080912A048150BD
:100B600080932A04181614F010922B0460912A0422
:100B700080E00E94430A63E087E40E94B50962E0D6
:100B800081E60E94B50962E08DE60E94B50962E047
:100B900085E60E94B50960912A046C5E8AE00E9495
:100BA000430A63E083E40E94B50962E08CE60E9498
:100BB000B50962E085E60E94B50962E081E60E941F
:100BC000B50962E082E70E94B50908952FEF280F6A
:100BD000C2F1332727FD309540919D0650E0241740
:100BE00035077CF5409191065091920641155105CB
:100BF00031F4F901ED5FFC4F6081613091F04130DB
:100C0000510531F4F901EE5FFD4F6081613049F02B
:100C100042305105B1F4F901EF59FE4F20812130E6
:100C200081F42091970630919806232B31F420917E
:100C30008E062F5F20938E0604C010929F0610929E
:100C40009E06069620919D0630E082179307C8F510
:100C500020919106309192062115310531F4FC0165
:100C6000ED5FFC4F4081413009F12130310531F415
:100C7000FC01EE5FFD4F40814130D9F0223031055B
:100C800001F5FC01EF59FE4F80818130D1F414C091
:100C9000FC01E050FF4F2081222334F4FC01E0509E
:100CA000FF4F2FE420830895019608C080E090E074
:100CB00005C080E090E002C080E090E085309105C2
:100CC0003CF308951F93CF93DF9320918F063091CB
:100CD00090062130310509F442C020919D0630E094
:100CE0008217930724F01092A1061092A006EC013F
:100CF0000E94E605DD231CF4CE01019634C08091EC
:100D00009D0690E0C817D9076CF5809191069091E7
:100D100092068130910549F018F0029759F00EC003
:100D2000FE01EC59FC4F108109C0FE01EE57FD4F4A
:100D3000108104C0FE01EF54FE4F1081E12FF0E05E
:100D4000EE0FFF1FEE0FFF1FEB53FC4F6081718111
:100D5000828193810E941302CE01019604C08AEF22
:100D60009FEF01C0CE01DF91CF911F910895CF93E6
:100D7000DF93EC011816190654F468E20E94430A46
:100D800061E08FE60E94B509CE01059702C08FEFA2
:100D90009FEFDF91CF9108950F931F93CF93DF9330
:100DA00080918F0690919006019799F0C0E0D0E075
:100DB0000DC08E0100501F4FF8018081992787FDDB
:100DC00090950E94B706F80180832196C530D10521
:100DD00084F380E090E0DF91CF911F910F9108950F
:100DE00021E030E030939F0620939E063093A106C9
:100DF0002093A0063093900620938F0630939A0696
:100E0000209399063093940620939306019761F4FA
:100E100010928E0680ED97E090932D0680932C061D
:100E2000109292061092910681E090E090939806BD
:100E30008093970660E070E0CB010E94130280E08F
:100E400007C0E82FF0E0E050FF4F9FEF90838F5FE7
:100E50008530B8F3EEE2F6E081E090E0A0E0B0E0AB
:100E600082839383A483B58386839783A087B18786
:100E7000118210822CEE32E03387228742E050E06C
:100E800060E070E046875787608B718B428B538B95
:100E9000648B758B2AEF3FEF3587248722E636E097
:100EA000378B268B828F938FA48FB58F868F978FEA
:100EB000A0A3B1A3118E108E2CEC36E033A322A395
:100EC00086A397A3A0A7B1A782A793A7A4A7B5A716
:100ED00015A214A229EC37E037A726A782AB93AB63
:100EE000A4ABB5AB86AB97ABA0AFB1AF11AA10AABC
:100EF00029E631E033AF22AF80936C0690936D0604
:100F0000A0936E06B0936F0680937006909371065F
:100F1000A0937206B093730615AE14AE2AE333E0C5
:100F20003093750620937406809378069093790623
:100F3000A0937A06B0937B0680937C0690937D06FF
:100F4000A0937E06B0937F061092770610927606E5
:100F500023E832E030938106209380068093840654
:100F600090938506A0938606B093870680938806A3
:100F700090938906A0938A06B0938B0610928306FD
:100F80001092820689EF93E090938D0680938C06F1
:100F90000895CF93DF93EC018930910508F051C09B
:100FA000FC01EA5BFF4F0C947C0A0E94DD02C1E069
:100FB000892B09F0C0E0D0E044C086B190E0809574
:100FC000909581FF3EC0C2E0D0E03BC086B190E08A
:100FD0008095909581FD35C0C3E0D0E032C086B1E8
:100FE00090E08095909581FF2CC0C4E0D0E029C0AE
:100FF00080919E0690919F06892B09F18091A00611
:101000009091A106892BE9F4C6E0D0E01AC00E94B5
:10101000DD02892BB1F4C7E0D0E013C00E94DD02ED
:10102000892B79F4C7E0D0E00CC00E94DD02892B47
:1010300041F0C8E0D0E005C0C0E0D0E002C0C5E0AB
:10104000D0E0309902C0C8E0D0E0C930D10508F046
:1010500060C0FE01E15BFF4F0C947C0A0E94B1046A
:1010600058C010929A061092990653C081E090E001
:1010700090939A0680939906109294061092930684
:1010800048C081E090E0909394068093930610927C
:10109000900610928F063DC081E090E090939006FC
:1010A00080938F060E94690534C0809195069091C7
:1010B00096060397F9F420912C0630912D06220F05
:1010C000331FABEABAEA0E94610A9695879590931E
:1010D0002D0680932C06892B31F481E090E09093CB
:1010E0002D0680932C0680E090E00E94F006C4E07C
:1010F000D0E00FC081E090E09093900680938F063F
:101100000E94980506C081E090E00E94F0060E94CF
:10111000B104CE01DF91CF91089511B88FEF82B95C
:1011200084B915B817B888B98AB91BB80E94D70214
:101130000E94C6020E94270981E090E00E94F0060A
:101140000E946B0910E043C0C12FD0E0CE01880F90
:10115000991F8C0F9D1F880F991F880F991FFC01E5
:10116000E25DF94F46815781608571858281938167
:10117000A481B581481759076A077B0778F07F017A
:10118000DF010284F385E02D8D919C910995F70193
:101190009183808316821782108611869E01220F0A
:1011A000331FC9018C0F9D1F880F991F880F991F2E
:1011B000FC01E25DF94F86819781A085B18501969A
:1011C000A11DB11D86839783A087B1871F5F18304B
:1011D00008F4BACF0E94480A40E050E00DC00196E2
:1011E00002C080E090E020912C0630912D068217FD
:1011F0009307A8F34F5F5F4F4E31510594F3A0CF93
:101200002998662319F02B9A90E015C02B98FCCFF3
:1012100047E050E0491B5109282F30E002C03595C6
:1012200027954A95E2F720FF02C02C9A01C02C981E
:101230002D9A2D989F5F983058F3299A089560E071
:101240000E940009089561E00E9400090895CF936B
:10125000DF93219A229A239A249A259A2A9A299AE4
:1012600083EC99E00197F1F700C000002A988BE524
:1012700094E40197F1F700C000002A9A299881E2CE
:101280000E941F0983E10E941F0986E00E941F0936
:1012900082EC0E941F0980E20E941F0989E00E94DF
:1012A0001F0980E80E941F0980E40E941F09C0E016
:1012B000D0E004C080E00E9423092196C83F91E05D
:1012C000D907C0F388E00E941F098CE00E941F0923
:1012D000DF91CF91089580E80E941F0980E40E9469
:1012E0001F0910922A0610922B0680E090E005C09C
:1012F000FC01EE5CFB4F10820196883F21E09207D3
:10130000B8F30895882311F080E201C084E20E94BE
:101310001F090895262F26952695269590E034E5F9
:10132000239F800D911D1124442379F0677021E0E3
:1013300030E002C0220F331F6A95E2F7FC01EE5C39
:10134000FB4F8081282B20830895677021E030E0D7
:1013500002C0220F331F6A95E2F7FC01EE5CFB4FDF
:1013600020958081282320830895EF92FF920F9388
:101370001F93CF93DF93E82E062FF12C3CC02E2D28
:10138000332727FD3095205231098F2D602F0E9481
:10139000700AF901EE0FFF1FEE0FFF1FE20FF31FA0
:1013A000E80FF11DE055FF4FE491812F0E94700A74
:1013B000F0E002C0F595E7958A95E2F7E0FF09C0F5
:1013C00060912B0680912A06610F41E08F0D0E94EB
:1013D0008A091F5F01C010E0212F30E0CE01880F85
:1013E000991F880F991F880F991F8C1B9D0B281719
:1013F00039072CF2F3942F2D30E0C02FD0E0CE012E
:10140000880F991F880F991F8C0F9D1F2817390768
:1014100014F3EAE2F6E0802F880F880F800F9081A6
:10142000890F8F5F8083843570F010922A06EBE27B
:10143000F6E0802F880F880F880F982F901B8081EF
:10144000890F8F5F808380912B06803320F010926C
:101450002A0610922B06DF91CF911F910F91FF90DA
:10146000EF9008951F93CF93DF93EC01162F04C0E4
:101470002196612F0E94B50988818111F9CFDF91F2
:10148000CF911F91089580932A0660932B060895AB
:10149000CF93DF9380E80E941F0980E40E941F0918
:1014A000C0E0D0E007C0FE01EE5CFB4F80810E94EF
:1014B00023092196C83F81E0D807A8F3DF91CF9197
:1014C0000895A29FB001B39FC001A39F700D811D1D
:1014D0001124911DB29F700D811D1124911D08953D
:1014E000991B79E004C0991F961708F0961B881F76
:1014F0007A95C9F780950895EE0FFF1F0024001C10
:101500000BBE0790F691E02D09949CD008F481E081
:1015100008950CD0D2C0CAD040F0C1D030F021F430
:101520005F3F19F0B3C05111FCC0B6C0D7D098F3DB
:101530009923C9F35523B1F3951B550BBB27AA2754
:1015400062177307840738F09F5F5F4F220F331FC6
:10155000441FAA1FA9F333D00E2E3AF0E0E830D092
:1015600091505040E695001CCAF729D0FE2F27D095
:10157000660F771F881FBB1F261737074807AB0763
:10158000B0E809F0BB0B802DBF01FF2793585F4FD8
:101590002AF09E3F510568F079C0C3C05F3FECF36D
:1015A000983EDCF3869577956795B795F7959F5F9D
:1015B000C9F7880F911D9695879597F90895E1E0F1
:1015C000660F771F881FBB1F621773078407BA0750
:1015D00020F0621B730B840BBA0BEE1F88F7E095AB
:1015E000089504D06894B1119CC008957FD088F00C
:1015F0009F5790F0B92F9927B751A0F0D1F0660FFF
:10160000771F881F991F1AF0BA95C9F712C0B13019
:1016100081F086D0B1E0089583C0672F782F8827A6
:10162000B85F39F0B93FCCF3869577956795B39558
:10163000D9F73EF490958095709561957F4F8F4FC7
:101640009F4F0895990F0008550FAA0BE0E8FEEF91
:1016500016161706E807F907C0F012161306E40776
:10166000F50798F0621B730B840B950B39F40A266F
:1016700061F0232B242B252B21F408950A2609F44D
:10168000A140A6958FEF811D811D089597F99F6751
:1016900080E870E060E008959FEF80EC08950024FA
:1016A0000A941616170618060906089500240A94C7
:1016B00012161306140605060895092E0394000C4D
:1016C00011F4882352F0BB0F40F4BF2B11F460FFDC
:1016D00004C06F5F7F4F8F4F9F4F089557FD905805
:1016E000440F551F59F05F3F71F04795880F97FBE6
:1016F000991F61F09F3F79F08795089512161306A0
:101700001406551FF2CF4695F1DF08C016161706CE
:101710001806991FF1CF8695710561050894089503
:10172000E894BB2766277727CB0197F908958ADFCE
:1017300008F48FEF08950BD0C0CFB1DF28F0B6DFEB
:1017400018F0952309F0A2CFA7CF1124EACFC6DF66
:10175000A0F3959FD1F3950F50E0551F629FF001C4
:10176000729FBB27F00DB11D639FAA27F00DB11D1D
:10177000AA1F649F6627B00DA11D661F829F2227A6
:10178000B00DA11D621F739FB00DA11D621F839F2D
:10179000A00D611D221F749F3327A00D611D231F03
:1017A000849F600D211D822F762F6A2F11249F5751
:1017B00050408AF0E1F088234AF0EE0FFF1FBB1F74
:1017C000661F771F881F91505040A9F79E3F510513
:1017D00070F05CCFA6CF5F3FECF3983EDCF38695CC
:1017E00077956795B795F795E7959F5FC1F7FE2BBE
:1017F000880F911D9695879597F90895CF93DF935C
:101800008230910510F482E090E0E091A406F0911E
:10181000A50620E030E0C0E0D0E0309711F1408133
:10182000518148175907C0F04817590761F4828160
:101830009381209719F09B838A832BC09093A506F0
:101840008093A40626C02115310519F042175307CD
:1018500018F49A01BE01DF01EF010280F381E02D4F
:10186000DCCF2115310509F1281B390B2430310556
:1018700090F412968D919C9113976115710521F04A
:10188000FB019383828304C09093A5068093A406F2
:10189000FD01329644C0FD01E20FF31F8193919345
:1018A000225031092D933C933AC02091A2063091E9
:1018B000A306232B41F420910C0130910D013093AC
:1018C000A3062093A20620910A0130910B01211555
:1018D000310541F42DB73EB740910E0150910F01F3
:1018E000241B350BE091A206F091A306E217F30743
:1018F000A0F42E1B3F0B2817390778F0AC014E5F80
:101900005F4F2417350748F04E0F5F1F5093A30613
:101910004093A2068193919302C0E0E0F0E0CF01F2
:10192000DF91CF9108950F931F93CF93DF9300978B
:1019300009F48CC0FC013297138212820091A40634
:101940001091A5060115110581F420813181820FC6
:10195000931F2091A2063091A3062817390779F525
:10196000F093A306E093A20671C0D80140E050E0D6
:10197000AE17BF0750F412962D913C911397AD010D
:101980002115310509F1D901F3CF9D01DA01338326
:10199000228360817181860F971F8217930769F4F4
:1019A000EC0128813981260F371F2E5F3F4F31838D
:1019B00020838A819B8193838283452B29F4F09332
:1019C000A506E093A40642C01396FC93EE931297EB
:1019D000ED01499159919E01240F351FE217F3073C
:1019E00071F480819181840F951F029611969C93CA
:1019F0008E938281938113969C938E931297E0E04D
:101A0000F0E0D80112968D919C911397009719F0F0
:101A1000F8018C01F6CF8D919C9198012E5F3F4F7C
:101A2000820F931F2091A2063091A3062817390731
:101A300069F4309729F41092A5061092A40602C00A
:101A4000138212821093A3060093A206DF91CF9116
:101A50001F910F910895FB01DC010D900020E9F723
:101A6000119701900D920020E1F70895FB01DC0130
:101A700001900D920020E1F70895FB019F01E89489
:101A80004230C4F04532B4F44A3029F497FB1EF4D6
:101A9000909581959F4F642F77270E946E0D805DF2
:101AA0008A330CF0895D8193CB010097A1F716F47E
:101AB0005DE251931082C9010C945E0DDC01FC01C2
:101AC000672F71917723E1F7329704C07C916D9372
:101AD00070836291AE17BF07C8F30895AA1BBB1BA2
:101AE00051E107C0AA1FBB1FA617B70710F0A61B1E
:101AF000B70B881F991F5A95A9F780959095BC013F
:081B0000CD010895F894FFCF18
:101B0800FFFFFFFFFF050A0F0A050000A6062000D9
:101B1800054F0506D0072C01BC0208040E00000082
:101B2800010001010101010101010034000000046C
:101B38000506070607080805030303040506070644
:101B48000708080805050504050607060708080527
:101B58000303050404030202030101010808080045
:101B6800500100000000000000010000000000001B
:101B7800000100000000000000010000000000005B
:101B8800000100000000000000010000000100004A
:101B9800000100000000000000010000000000003B
:101BA8000001000000010000000100000001000029
:101BB800000100030000000300010003000000030F
:101BC80000030003040500030004000405020002EA
:101BD80000030003040500080006060600050000CF
:101BE80000030003040500030004000405020002CA
:101BF80000030003040200020001010101080808B3
:101C08000880010000000000000001000000000042
:101C180000000100000001000000010000000000B9
:101C280000000100000000000000010000000000AA
:101C38000000010000000100000001000000000099
:101C4800000001000000000000000100000000008A
:101C58000000010000000100000001000000000079
:101C6800000001000000000000000100000000006A
:101C78000000010000000100000001000000000059
:101C88000000030003000303030003000300030331
:101C98000300030005000101010203030303000020
:101CA8000000040004000400040004000300030012
:101CB80003000303020002020303020202020505F5
:101CC80005050300030003030300030003000303E7
:101CD80003000300050001010102030303030000E0
:101CE80000000400040004000400040003000300D2
:101CF80003000500050504040202010101010808AA
:101D08000808610001000000000000000100000058
:101D180000000000010000000000000001000000B9
:101D280001000000010000000000000001000000A8
:101D38000100000001000000000000000100000098
:101D48000100000001000000000000000100000088
:101D58000100000001000000000000000100000078
:101D68000100000000010001000500050006000652
:101D78000005050505040004000300030002000235
:101D8800000101010105000500040004000300032F
:101D9800000202020205000500040004000300031B
:101DA800000202020201000100050005000600060B
:101DB80000050505050400040003000300020002F5
:101DC800000101010100000000A4D082437BD492ED
:101DD80043A4D0A443719DAE430000C4430000DC7B
:101DE80043A4F0F64300D0024453636F72653A008F
:101DF80041424320536F6E67004A696E676C6520E5
:101E080042656C6C00466C6F77657220536F6E6725
:101E18000045617379004D656469756D00486172AC
:0A1E28006400456E646C657373007E
:00000001FF
