:100000000C9436010C9455010C9455010C94550137
:100010000C9455010C9455010C9455010C94550108
:100020000C9455010C9455010C9455010C945501F8
:100030000C9455010C9455010C9455010C945501E8
:100040000C9455010C9455010C9455010C945501D8
:100050000C9455010C9455010C9455010C945501C8
:100060000C9455010C9455010C9455010C945501B8
:100070000C9455010C9455010C9455010C945501A8
:100080000C9455010C9455010C945501000000008E
:100090000000005F00000007000700147F147F14B9
:1000A000242A7F2A122313086462364955225000FD
:1000B00005030000001C2241000041221C0014081E
:1000C0003E081408083E08080050300000080808E0
:1000D0000808006060000020100804023E514945F5
:1000E0003E00427F400042615149462141454B312B
:1000F0001814127F1027454545393C4A49493001BB
:10010000710905033649494936064949291E003611
:100110003600000056360000081422410014141462
:100120001414004122140802015109063249794190
:100130003E7E1111117E7F494949363E414141229F
:100140007F4141221C7F494949417F090909013EFC
:100150004149497A7F0808087F00417F41002040DB
:10016000413F017F081422417F404040407F020C04
:10017000027F7F0408107F3E4141413E7F0909090B
:10018000063E4151215E7F091929464649494931B8
:1001900001017F01013F4040403F1F2040201F3FA1
:1001A0004038403F63140814630708700807615122
:1001B000494543007F4141000204081020004141AD
:1001C0007F0004020102044040404040000102045C
:1001D0000020545454787F484444383844444420E0
:1001E000384444487F3854545418087E0901020C9E
:1001F0005252523E7F0804047800447D4000204063
:10020000443D007F1028440000417F40007C0418DA
:1002100004787C0804047838444444387C1414146A
:1002200008081414187C7C0804040848545454200A
:10023000043F4440203C4040207C1C2040201C3C8B
:100240004030403C44281028440C5050503C4464FA
:10025000544C44000836410000007F000000413645
:1002600008001008081008000000000011241FBE3C
:10027000CFEFD0E4DEBFCDBF12E0A0E0B1E0E4EE0E
:10028000F2E100E00BBF02C007900D92AA30B10767
:10029000D9F714E0AAE0B2E001C01D92AF34B10773
:1002A000E1F70E9497040C9470090C940000CF921F
:1002B000DF92EF92FF920F931F93CF93DF93CDB70F
:1002C000DEB72C970FB6F894DEBF0FBECDBF80917E
:1002D000450490914604892BD9F560E080E00E94A6
:1002E000490687E0E3E0F2E09E012F5F3F4F79018E
:1002F000D90101900D928A95E1F78E01085F1F4F99
:1003000080910A024AE050E0B80190E00E942B0977
:10031000F70101900020E9F73197CF018E199F096D
:10032000F80101900020E9F73197E01BF10B8E0FE7
:100330009F1F01960E94EC076C01B7010E942409DF
:10034000B801C6010E94190961E0C6010E94380681
:1003500080E090E02C960FB6F894DEBF0FBECDBFC4
:10036000DF91CF911F910F91FF90EF90DF90CF9091
:100370000895CF92DF92EF92FF926B017C01209162
:100380000B0230910C0240910D0250910E020E941E
:100390007306882309F458C020E030E0A901C701A2
:1003A000B6010E947306811106C0E1E9F0E0808188
:1003B0008870808305C0E1E9F0E0808183608083FC
:1003C00028E539E344E75FE3C701B6010E947306FD
:1003D00088233CF48FEF9FEF9093990080939800CF
:1003E00027C020E034E244EF56E4C701B6010E9482
:1003F000850718162CF4109299001092980018C0D6
:1004000020E030E040E053E4C701B6010E948907D4
:100410009B01AC0160E074E284EF9AE40E947706ED
:100420000E94DF06615071097093990060939800F3
:100430001092950010929400C0920B02D0920C0280
:10044000E0920D02F0920E02FF90EF90DF90CF90BD
:10045000089580E4809390008BE08093910060E0A9
:1004600070E0CB010E94B9010895109290001092A3
:1004700091000895EAE7F0E08081806E808308951E
:10048000209178003091790030934A0420934904F8
:1004900081E02D3B324008F080E090E00895CF935A
:1004A000DF93209145043091460421303105A1F1BC
:1004B000009721F08530910561F008C00E9440024C
:1004C000C1E0892B09F0C0E0D0E005C0EC01219625
:1004D00002C0C0E0D0E0209749F41BB881E090E072
:1004E000909348048093470480E00AC08FEF8BB953
:1004F0001092480410924704FE01E757FE4F808196
:1005000068E2681B8AE00E94490661E088E50E9473
:10051000BB058C2F9D2F02C080E090E0DF91CF9132
:10052000089560E080E00E94490663E08DE40E9447
:10053000BB0562E085E70E94BB0562E083E70E949D
:10054000BB0562E089E60E94BB0562E083E60E948B
:10055000BB0564E18AE00E94490663E087E40E94EB
:10056000BB0562E081E60E94BB0562E08DE60E9469
:10057000BB0562E085E60E94BB05089560E080E06F
:100580000E94490663E087E40E94BB0562E081E6C1
:100590000E94BB0562E08DE60E94BB0562E085E635
:1005A0000E94BB0564E18AE00E94490663E08FE493
:1005B0000E94BB0562E086E70E94BB0562E085E61B
:1005C0000E94BB0562E082E70E94BB05089560E0DF
:1005D00080E00E94490663E087E40E94BB0562E078
:1005E00081E60E94BB0562E08DE60E94BB0562E0E9
:1005F00085E60E94BB0564E18AE00E94490663E04B
:1006000083E40E94BB0562E08CE60E94BB0562E0C9
:1006100085E60E94BB0562E081E60E94BB0562E0C0
:1006200082E70E94BB050895CF93DF93EC018230EF
:10063000910529F134F4009759F08130910581F04A
:1006400035C08330910511F18430910531F12EC010
:100650000E944002C1E0892B09F0C0E0D0E026C032
:100660008091910190919201892BF1F080918F01FD
:1006700090919001892BD1F4C3E0D0E017C00E9483
:100680004002892B99F4C4E0D0E010C00E944002DF
:10069000892B61F4C4E0D0E009C00E944002892B9C
:1006A00029F0C0E0D0E002C0C2E0D0E0C230D10505
:1006B00029F134F4209751F0C130D105C1F02FC099
:1006C000C330D10521F1C430D10549F50E94910212
:1006D00081E090E09093920180939101909390013A
:1006E00080938F01909346048093450418C08FEF48
:1006F0008BB9109246041092450411C081E090E03D
:1007000090934604809345040E94BE0208C081E095
:1007100090E090934604809345040E94E702CE0146
:10072000DF91CF910895EFEFE80FE136C0F4FF2796
:10073000E7FDF095E256FE4F2081213081F42091B3
:10074000470430914804232B31F420910A022F5F93
:1007500020930A0204C01092920110929101069611
:1007600081369105D0F4FC01E256FE4F8081813044
:10077000A1F40EC0FC01E050FF4F2081222334F48D
:10078000FC01E050FF4F2FE420830895019602C042
:1007900080E090E0853091056CF30895CF93DF936E
:1007A000EC018091450490914604019741F460E08A
:1007B00070E0CB010E94B9018AEF9FEF27C0C136DC
:1007C000D10524F01092900110928F01CE010E9469
:1007D0009303DD231CF4CE01019618C0C136D10568
:1007E000A4F4FE01EB5FFE4FE081F0E0EE0FFF1F8F
:1007F000EE0FFF1FEA59FE4F608171818281938164
:100800000E94B901CE01019601C0CE01DF91CF91C6
:100810000895CF93DF93EC011816190654F468E29B
:100820000E94490661E08FE60E94BB05CE01059754
:1008300002C08FEF9FEFDF91CF9108950F931F9329
:10084000CF93DF938091450490914604019799F0EE
:10085000C0E0D0E00DC08E0100501F4FF801808134
:10086000992787FD90950E940904F80180832196BD
:10087000C530D10584F380E090E0DF91CF911F91E6
:100880000F91089510920A02E9E0F4E081E090E00F
:10089000A0E0B0E082839383A483B58386839783AB
:1008A000A087B187118210822FE432E0338722873C
:1008B00042E050E060E070E046875787608B718BC4
:1008C000428B538B648B758B2AEF3FEF35872487E0
:1008D0002EEC33E0378B268B828F938FA48FB58FCE
:1008E000868F978FA0A3B1A3118E108E2EE134E0D6
:1008F00033A322A386A397A3A0A7B1A782A793A7F8
:10090000A4A7B5A715A214A224E133E037A726A710
:1009100082AB93ABA4ABB5AB86AB97ABA0AFB1AF9B
:1009200011AA10AA87E591E093AF82AF089511B89C
:100930008FEF82B984B915B88AB91BB80E943A0200
:100940000E9429020E942D050E9471050E94420406
:100950000E947105F12C43C0CF2DD0E0CE01880F4D
:10096000991F8C0F9D1F880F991F880F991FFC01DD
:10097000E75FFB4F46815781608571858281938156
:10098000A481B581481759076A077B0778F08F0162
:10099000DF010284F385E02D8D919C910995F8018A
:1009A0009183808316821782108611869E01220F02
:1009B000331FC9018C0F9D1F880F991F880F991F26
:1009C000FC01E75FFB4F86819781A085B185019689
:1009D000A11DB11D86839783A087B187F394B4E0EE
:1009E000BF1508F0B9CF0E944E0620E030E00AC0E3
:1009F000019602C080E090E0883BEBE09E07C4F3E4
:100A00002F5F3F4F2E313105ACF3A2CF29986623DB
:100A100019F02B9A90E015C02B98FCCF47E050E0DE
:100A2000491B5109282F30E002C0359527954A957A
:100A3000E2F720FF02C02C9A01C02C982D9A2D9825
:100A40009F5F983058F3299A089560E00E94060548
:100A5000089561E00E9406050895CF93DF93219ADF
:100A6000229A239A249A259A2A9A299A83EC99E021
:100A70000197F1F700C000002A988BE594E40197F4
:100A8000F1F700C000002A9A299881E20E9425050A
:100A900083E10E94250586E00E94250582EC0E94E4
:100AA000250580E20E94250589E00E94250580E851
:100AB0000E94250580E40E942505C0E0D0E004C026
:100AC00080E00E9429052196C83F91E0D907C0F334
:100AD00088E00E9425058CE00E942505DF91CF91DA
:100AE000089580E80E94250580E40E942505109263
:100AF00007041092080480E090E005C0FC01E15F6B
:100B0000FD4F10820196883F21E09207B8F30895C7
:100B1000882311F080E201C084E20E942505089537
:100B2000262F26952695269590E034E5239F800D67
:100B3000911D1124442379F0677021E030E002C058
:100B4000220F331F6A95E2F7FC01E15FFD4F8081C0
:100B5000282B20830895677021E030E002C0220F27
:100B6000331F6A95E2F7FC01E15FFD4F209580811C
:100B7000282320830895EF92FF920F931F93CF9322
:100B8000DF93E82E062FF12C3CC02E2D332727FDB6
:100B90003095205231098F2D602F0E946706F90190
:100BA000EE0FFF1FEE0FFF1FE20FF31FE80FF11D07
:100BB000E457FF4FE491812F0E946706F0E002C0E6
:100BC000F595E7958A95E2F7E0FF09C06091080482
:100BD00080910704610F41E08F0D0E9490051F5F17
:100BE00001C010E0212F30E0CE01880F991F880F3F
:100BF000991F880F991F8C1B9D0B281739072CF202
:100C0000F3942F2D30E0C02FD0E0CE01880F991F34
:100C1000880F991F8C0F9D1F2817390714F3E7E0E1
:100C2000F4E0802F880F880F800F9081890F8F5FED
:100C30008083843570F010920704E8E0F4E0802FA0
:100C4000880F880F880F982F901B8081890F8F5FE6
:100C5000808380910804803320F010920704109262
:100C60000804DF91CF911F910F91FF90EF900895AD
:100C70001F93CF93DF93EC01162F04C02196612FB1
:100C80000E94BB0588818111F9CFDF91CF911F911F
:100C9000089580930704609308040895CF93DF9329
:100CA00080E80E94250580E40E942505C0E0D0E090
:100CB00007C0FE01E15FFD4F80810E94290521965A
:100CC000C83F81E0D807A8F3DF91CF910895991B21
:100CD00079E004C0991F961708F0961B881F7A9533
:100CE000C9F7809508959CD008F481E008950CD050
:100CF000D2C0CAD040F0C1D030F021F45F3F19F02B
:100D0000B3C05111FCC0B6C0D7D098F39923C9F332
:100D10005523B1F3951B550BBB27AA276217730701
:100D2000840738F09F5F5F4F220F331F441FAA1FB5
:100D3000A9F333D00E2E3AF0E0E830D09150504075
:100D4000E695001CCAF729D0FE2F27D0660F771F23
:100D5000881FBB1F261737074807AB07B0E809F005
:100D6000BB0B802DBF01FF2793585F4F2AF09E3F9A
:100D7000510568F079C0C3C05F3FECF3983EDCF3E7
:100D8000869577956795B795F7959F5FC9F7880F13
:100D9000911D9695879597F90895E1E0660F771F65
:100DA000881FBB1F621773078407BA0720F0621BF6
:100DB000730B840BBA0BEE1F88F7E095089504D0EF
:100DC0006894B1119CC008957FD088F09F5790F02F
:100DD000B92F9927B751A0F0D1F0660F771F881F60
:100DE000991F1AF0BA95C9F712C0B13081F086D0B8
:100DF000B1E0089583C0672F782F8827B85F39F056
:100E0000B93FCCF3869577956795B395D9F73EF4BE
:100E100090958095709561957F4F8F4F9F4F089566
:100E2000990F0008550FAA0BE0E8FEEF16161706FB
:100E3000E807F907C0F012161306E407F50798F063
:100E4000621B730B840B950B39F40A2661F0232B7C
:100E5000242B252B21F408950A2609F4A140A695F8
:100E60008FEF811D811D089597F99F6780E870E0DD
:100E700060E008959FEF80EC089500240A94161610
:100E8000170618060906089500240A941216130678
:100E9000140605060895092E0394000C11F4882306
:100EA00052F0BB0F40F4BF2B11F460FF04C06F5F22
:100EB0007F4F8F4F9F4F089557FD9058440F551FF8
:100EC00059F05F3F71F04795880F97FB991F61F0CC
:100ED0009F3F79F087950895121613061406551F43
:100EE000F2CF4695F1DF08C0161617061806991FAF
:100EF000F1CF86957105610508940895E894BB27A4
:100F000066277727CB0197F908958ADF08F48FEFDA
:100F100008950BD0C0CFB1DF28F0B6DF18F09523CD
:100F200009F0A2CFA7CF1124EACFC6DFA0F3959F87
:100F3000D1F3950F50E0551F629FF001729FBB27C0
:100F4000F00DB11D639FAA27F00DB11DAA1F649F6C
:100F50006627B00DA11D661F829F2227B00DA11D1F
:100F6000621F739FB00DA11D621F839FA00D611DA5
:100F7000221F749F3327A00D611D231F849F600DC6
:100F8000211D822F762F6A2F11249F5750408AF0FF
:100F9000E1F088234AF0EE0FFF1FBB1F661F771F8B
:100FA000881F91505040A9F79E3F510570F05CCFCB
:100FB000A6CF5F3FECF3983EDCF386957795679577
:100FC000B795F795E7959F5FC1F7FE2B880F911DA9
:100FD0009695879597F90895CF93DF938230910581
:100FE00010F482E090E0E0914D04F0914E0420E096
:100FF00030E0C0E0D0E0309711F1408151814817D6
:101000005907C0F04817590761F4828193812097EE
:1010100019F09B838A832BC090934E0480934D04D8
:1010200026C02115310519F04217530718F49A010B
:10103000BE01DF01EF010280F381E02DDCCF21153D
:10104000310509F1281B390B2430310590F4129633
:101050008D919C9113976115710521F0FB0193838C
:10106000828304C090934E0480934D04FD01329618
:1010700044C0FD01E20FF31F819391932250310987
:101080002D933C933AC020914B0430914C04232B78
:1010900041F4209195013091960130934C042093B6
:1010A0004B0420919301309194012115310541F4B5
:1010B0002DB73EB74091970150919801241B350BF5
:1010C000E0914B04F0914C04E217F307A0F42E1BBF
:1010D0003F0B2817390778F0AC014E5F5F4F24179C
:1010E000350748F04E0F5F1F50934C0440934B045C
:1010F0008193919302C0E0E0F0E0CF01DF91CF91C6
:1011000008950F931F93CF93DF93009709F48CC03A
:10111000FC0132971382128200914D0410914E040B
:101120000115110581F420813181820F931F2091D7
:101130004B0430914C042817390779F5F0934C048F
:10114000E0934B0471C0D80140E050E0AE17BF07F8
:1011500050F412962D913C911397AD012115310554
:1011600009F1D901F3CF9D01DA0133832283608134
:101170007181860F971F8217930769F4EC0128810C
:101180003981260F371F2E5F3F4F318320838A819D
:101190009B8193838283452B29F4F0934E04E09343
:1011A0004D0442C01396FC93EE931297ED014991C2
:1011B00059919E01240F351FE217F30771F48081C6
:1011C0009181840F951F029611969C938E93828134
:1011D000938113969C938E931297E0E0F0E0D801F0
:1011E00012968D919C911397009719F0F8018C013C
:1011F000F6CF8D919C9198012E5F3F4F820F931FE8
:1012000020914B0430914C042817390769F430972A
:1012100029F410924E0410924D0402C013821282DF
:1012200010934C0400934B04DF91CF911F910F91C9
:101230000895FB01DC010D900020E9F71197019062
:101240000D920020E1F70895FB01DC0101900D9261
:101250000020E1F70895FB019F01E8944230C4F0BB
:101260004532B4F44A3029F497FB1EF490958195E9
:101270009F4F642F77270E945C09805D8A330CF0B2
:10128000895D8193CB010097A1F716F45DE251933C
:101290001082C9010C944C09DC01FC01672F71918B
:1012A0007723E1F7329704C07C916D93708362914C
:1012B000AE17BF07C8F30895AA1BBB1B51E107C0B7
:1012C000AA1FBB1FA617B70710F0A61BB70B881FD6
:1012D000991F5A95A9F780959095BC01CD01089565
:0412E000F894FFCFB0
:1012E400FFFFFFFFFF0001000100050005000600ED
:1012F40006000505050504000400030003000200C0
:1013040002000101010105000500040004000300BE
:1013140003000202020205000500040004000300A9
:10132400030002020202010001000500050006009C
:10133400060005050505040004000300030002007F
:1013440002000101010100000000A4D082437BD40B
:101354009243A4D0A443719DAE430000C443000053
:10136400DC43A4F0F64300D00244050A0F0A050149
:1013740000010000004F042000054F050661000134
:101384000000000000000001000000000000000157
:101394000000000000000001000000010000000146
:1013A4000000000000000001000000010000000136
:1013B4000000000000000001000000010000000126
:1013C4000000000000000001000000010000000116
:1013D40000000000000000010000000100000009FE
:0A13E400BC020553636F72653A0006
:00000001FF
