:100000000C9436010C9455010C9455010C94550137
:100010000C9455010C9455010C9455010C94550108
:100020000C9455010C9455010C9455010C945501F8
:100030000C9455010C94D2030C9455010C94550169
:100040000C9455010C9455010C9455010C945501D8
:100050000C9455010C9455010C9455010C945501C8
:100060000C9455010C9455010C9455010C945501B8
:100070000C9455010C9455010C9455010C945501A8
:100080000C9455010C9455010C945501000000008E
:100090000000005F00000007000700147F147F14B9
:1000A000242A7F2A122313086462364955225000FD
:1000B00005030000001C2241000041221C0014081E
:1000C0003E081408083E08080050300000080808E0
:1000D0000808006060000020100804023E514945F5
:1000E0003E00427F400042615149462141454B312B
:1000F0001814127F1027454545393C4A49493001BB
:10010000710905033649494936064949291E003611
:100110003600000056360000081422410014141462
:100120001414004122140802015109063249794190
:100130003E7E1111117E7F494949363E414141229F
:100140007F4141221C7F494949417F090909013EFC
:100150004149497A7F0808087F00417F41002040DB
:10016000413F017F081422417F404040407F020C04
:10017000027F7F0408107F3E4141413E7F0909090B
:10018000063E4151215E7F091929464649494931B8
:1001900001017F01013F4040403F1F2040201F3FA1
:1001A0004038403F63140814630708700807615122
:1001B000494543007F4141000204081020004141AD
:1001C0007F0004020102044040404040000102045C
:1001D0000020545454787F484444383844444420E0
:1001E000384444487F3854545418087E0901020C9E
:1001F0005252523E7F0804047800447D4000204063
:10020000443D007F1028440000417F40007C0418DA
:1002100004787C0804047838444444387C1414146A
:1002200008081414187C7C0804040848545454200A
:10023000043F4440203C4040207C1C2040201C3C8B
:100240004030403C44281028440C5050503C4464FA
:10025000544C44000836410000007F000000413645
:1002600008001008081008000000000011241FBE3C
:10027000CFEFD0E4DEBFCDBF11E0A0E0B1E0E0EB16
:10028000FBE000E00BBF02C007900D92A830B10761
:10029000D9F713E0A8E0B1E001C01D92A931B10780
:1002A000E1F70E9427040C94D6050C9400002998CD
:1002B000662319F02B9A90E015C02B98FCCF47E0ED
:1002C00050E0491B5109282F30E002C03595279591
:1002D0004A95E2F720FF02C02C9A01C02C982D9A73
:1002E0002D989F5F983058F3299A089560E00E94F6
:1002F0005701089561E00E9457010895CF93DF935D
:10030000219A229A239A249A259A2A9A299A83EC46
:1003100099E00197F1F700C000002A988BE594E47A
:100320000197F1F700C000002A9A299881E20E9403
:10033000760183E10E94760186E00E94760182ECDC
:100340000E94760180E20E94760189E00E94760197
:1003500080E80E94760180E40E947601C0E0D0E04F
:1003600004C080E00E947A012196C83F91E0D9073D
:10037000C0F388E00E9476018CE00E947601DF9154
:10038000CF91089580E80E94760180E40E94760172
:10039000109200031092010380E090E005C0FC0180
:1003A000E85FFE4F10820196883F21E09207B8F384
:1003B0000895882311F080E201C084E20E94760152
:1003C0000895262F26952695269590E034E5239FBF
:1003D000800D911D1124442379F0677021E030E0F5
:1003E00002C0220F331F6A95E2F7FC01E85FFE4F5F
:1003F0008081282B20830895677021E030E002C0BF
:10040000220F331F6A95E2F7FC01E85FFE4F20954B
:100410008081282320830895EF92FF920F931F93EA
:10042000CF93DF93E82EF62E00E047C02E2D332722
:1004300027FD309520523109802F6F2D0E945104E5
:10044000F901EE0FFF1FEE0FFF1FE20FF31FE80F82
:10045000F11DE457FF4FE491812F0E945104F0E019
:1004600002C0F595E7958A95E2F7E0FF0AC0609132
:10047000010380910003610F41E0800F0E94E101C0
:1004800009C06091010380910003610F40E0800F7B
:100490000E94E1011F5F01C010E0212F30E0CE017A
:1004A000880F991F880F991F880F991F8C1B9D0B10
:1004B000281739070CF4BACF0F5F202F30E0CF2D6B
:1004C000D0E0CE01880F991F880F991F8C0F9D1FB8
:1004D000281739070CF3E0E0F3E08F2D880F880F21
:1004E0008F0D9081890F8F5F8083843570F010921B
:1004F0000003E1E0F3E08F2D880F880F880F982F1D
:100500009F198081890F8F5F8083809101038033E1
:1005100020F01092000310920103DF91CF911F9100
:100520000F91FF90EF9008951F93CF93DF93EC010D
:10053000162F04C02196612F0E940C028881811120
:10054000F9CFDF91CF911F910895809300036093BD
:1005500001030895CF93DF9380E80E94760180E441
:100560000E947601C0E0D0E007C0FE01E85FFE4FC8
:1005700080810E947A012196C83F81E0D807A8F3C4
:10058000DF91CF910895CF92DF92EF92FF926B01AE
:100590007C01209107033091080340910903509199
:1005A0000A030E945D04882309F458C020E030E06B
:1005B000A901C701B6010E945D04811106C0E1E9ED
:1005C000F0E080818870808305C0E1E9F0E08081FF
:1005D0008360808328E539E344E75FE3C701B60120
:1005E0000E945D0488233CF48FEF9FEF90939B0063
:1005F00080939A0027C020E034E244EF56E4C7011C
:10060000B6010E946F0518162CF410929B001092F0
:100610009A0018C020E030E040E053E4C701B60182
:100620000E9473059B01AC0160E074E284EF9AE4E0
:100630000E9461040E94C9046150710970939B007B
:1006400060939A001092950010929400C092070354
:10065000D0920803E0920903F0920A03FF90EF9012
:10066000DF90CF90089580E4809390008BE080939A
:10067000910060E070E0CB010E94C30208951092E7
:1006800090001092910008958BE0809381008DE797
:1006900090E0909389008093880082E080936F00BF
:1006A00010928500109284008091000190910101C8
:1006B000A0910201B0910301809302039093030380
:1006C000A0930403B09305038FB780688FBF08958C
:1006D000109281000895609300017093010180934E
:1006E00002019093030160930203709303038093CC
:1006F0000403909305030895EF92FF921F93CF9305
:10070000DF9381E08093060310E043C0C12FD0E067
:10071000CE01880F991F8C0F9D1F880F991F880F7E
:10072000991FFC01E55FFC4F46815781608571850B
:1007300082819381A481B581481759076A077B0795
:1007400078F07F01DF010284F385E02D8D919C918B
:100750000995F7019183808316821782108611868E
:100760009E01220F331FC9018C0F9D1F880F991FF7
:10077000880F991FFC01E55FFC4F86819781A0855A
:10078000B1850196A11DB11D86839783A087B1878E
:100790001F5F112309F4BACFDF91CF911F91FF9012
:1007A000EF9008951F920F920FB60F9211240BB67F
:1007B0000F922F933F934F935F936F937F938F93FA
:1007C0009F93AF93BF93EF93FF9380910203909118
:1007D0000303A0910403B09105030197A109B10996
:1007E0008093020390930303A0930403B093050343
:1007F000892B8A2B8B2B91F40E947C038091000122
:1008000090910101A0910201B09103018093020334
:1008100090930303A0930403B0930503FF91EF911A
:10082000BF91AF919F918F917F916F915F914F9108
:100830003F912F910F900BBE0F900FBE0F901F9006
:100840001895EAE7F0E08081806E808308958FEF4D
:1008500084B915B88AB91BB80E9421040E943303D9
:100860000E947E0163E08BE60E940C020E94AA02B5
:100870002FE38DE093E0215080409040E1F700C0ED
:1008800000008091780090917900909318038093F4
:1008900017038D3B924018F080E48BB9E9CF1BB869
:1008A000E7CF991B79E004C0991F961708F0961BB3
:1008B000881F7A95C9F7809508959CD008F481E047
:1008C00008950CD0D2C0CAD040F0C1D030F021F48D
:1008D0005F3F19F0B3C05111FCC0B6C0D7D098F338
:1008E0009923C9F35523B1F3951B550BBB27AA27B1
:1008F00062177307840738F09F5F5F4F220F331F23
:10090000441FAA1FA9F333D00E2E3AF0E0E830D0EE
:1009100091505040E695001CCAF729D0FE2F27D0F1
:10092000660F771F881FBB1F261737074807AB07BF
:10093000B0E809F0BB0B802DBF01FF2793585F4F34
:100940002AF09E3F510568F079C0C3C05F3FECF3C9
:10095000983EDCF3869577956795B795F7959F5FF9
:10096000C9F7880F911D9695879597F90895E1E04D
:10097000660F771F881FBB1F621773078407BA07AC
:1009800020F0621B730B840BBA0BEE1F88F7E09507
:10099000089504D06894B1119CC008957FD088F068
:1009A0009F5790F0B92F9927B751A0F0D1F0660F5B
:1009B000771F881F991F1AF0BA95C9F712C0B13076
:1009C00081F086D0B1E0089583C0672F782F882703
:1009D000B85F39F0B93FCCF3869577956795B395B5
:1009E000D9F73EF490958095709561957F4F8F4F24
:1009F0009F4F0895990F0008550FAA0BE0E8FEEFEE
:100A000016161706E807F907C0F012161306E407D2
:100A1000F50798F0621B730B840B950B39F40A26CB
:100A200061F0232B242B252B21F408950A2609F4A9
:100A3000A140A6958FEF811D811D089597F99F67AD
:100A400080E870E060E008959FEF80EC0895002456
:100A50000A941616170618060906089500240A9423
:100A600012161306140605060895092E0394000CA9
:100A700011F4882352F0BB0F40F4BF2B11F460FF38
:100A800004C06F5F7F4F8F4F9F4F089557FD905861
:100A9000440F551F59F05F3F71F04795880F97FB42
:100AA000991F61F09F3F79F08795089512161306FC
:100AB0001406551FF2CF4695F1DF08C0161617062B
:100AC0001806991FF1CF8695710561050894089560
:100AD000E894BB2766277727CB0197F908958ADF2B
:100AE00008F48FEF08950BD0C0CFB1DF28F0B6DF48
:100AF00018F0952309F0A2CFA7CF1124EACFC6DFC3
:100B0000A0F3959FD1F3950F50E0551F629FF00120
:100B1000729FBB27F00DB11D639FAA27F00DB11D79
:100B2000AA1F649F6627B00DA11D661F829F222702
:100B3000B00DA11D621F739FB00DA11D621F839F89
:100B4000A00D611D221F749F3327A00D611D231F5F
:100B5000849F600D211D822F762F6A2F11249F57AD
:100B600050408AF0E1F088234AF0EE0FFF1FBB1FD0
:100B7000661F771F881F91505040A9F79E3F51056F
:100B800070F05CCFA6CF5F3FECF3983EDCF3869528
:100B900077956795B795F795E7959F5FC1F7FE2B1A
:100BA000880F911D9695879597F90895F894FFCF32
:080BB000010000000ABC020173
:00000001FF
