:100000000C9436010C9455010C9455010C94550137
:100010000C9455010C9455010C9455010C94550108
:100020000C9455010C9455010C9455010C945501F8
:100030000C9455010C9455010C9455010C945501E8
:100040000C9455010C9455010C9455010C945501D8
:100050000C9455010C9455010C9455010C945501C8
:100060000C9455010C9455010C9455010C945501B8
:100070000C9455010C9455010C9455010C945501A8
:100080000C9455010C9455010C945501000000008E
:100090000000005F00000007000700147F147F14B9
:1000A000242A7F2A122313086462364955225000FD
:1000B00005030000001C2241000041221C0014081E
:1000C0003E081408083E08080050300000080808E0
:1000D0000808006060000020100804023E514945F5
:1000E0003E00427F400042615149462141454B312B
:1000F0001814127F1027454545393C4A49493001BB
:10010000710905033649494936064949291E003611
:100110003600000056360000081422410014141462
:100120001414004122140802015109063249794190
:100130003E7E1111117E7F494949363E414141229F
:100140007F4141221C7F494949417F090909013EFC
:100150004149497A7F0808087F00417F41002040DB
:10016000413F017F081422417F404040407F020C04
:10017000027F7F0408107F3E4141413E7F0909090B
:10018000063E4151215E7F091929464649494931B8
:1001900001017F01013F4040403F1F2040201F3FA1
:1001A0004038403F63140814630708700807615122
:1001B000494543007F4141000204081020004141AD
:1001C0007F0004020102044040404040000102045C
:1001D0000020545454787F484444383844444420E0
:1001E000384444487F3854545418087E0901020C9E
:1001F0005252523E7F0804047800447D4000204063
:10020000443D007F1028440000417F40007C0418DA
:1002100004787C0804047838444444387C1414146A
:1002200008081414187C7C0804040848545454200A
:10023000043F4440203C4040207C1C2040201C3C8B
:100240004030403C44281028440C5050503C4464FA
:10025000544C44000836410000007F000000413645
:1002600008001008081008000000000011241FBE3C
:10027000CFEFD0E4DEBFCDBF11E0A0E0B1E0E4EE0F
:10028000F7E000E00BBF02C007900D92AA3DB10756
:10029000D9F713E0AAEDB1E001C01D92AC3EB10761
:1002A000E1F70E9454020C94F0030C9400008BE0E0
:1002B000809381008DE790E090938900809388007F
:1002C00082E080936F0010928500109284008091EC
:1002D000C3019091C401A091C501B091C601809362
:1002E000DA019093DB01A093DC01B093DD018FB7BD
:1002F00080688FBF08951092810008956093C301B4
:100300007093C4018093C5019093C6016093DA0194
:100310007093DB018093DC019093DD010895EF92EF
:10032000FF921F93CF93DF9381E08093DE0110E073
:1003300043C0C12FD0E0CE01880F991F8C0F9D1FA5
:10034000880F991F880F991FFC01E752FC4F4681C7
:1003500057816085718582819381A481B581481719
:1003600059076A077B0778F07F01DF010284F38574
:10037000E02D8D919C910995F701918380831682E0
:100380001782108611869E01220F331FC9018C0F20
:100390009D1F880F991F880F991FFC01E752FC4F82
:1003A00086819781A085B1850196A11DB11D8683A7
:1003B0009783A087B1871F5F112309F4BACFDF911C
:1003C000CF911F91FF90EF9008958091DA01909165
:1003D000DB01A091DC01B091DD010197A109B10918
:1003E0008093DA019093DB01A093DC01B093DD01EF
:1003F000892B8A2B8B2B91F40E948F018091C30152
:100400009091C401A091C501B091C6018093DA0119
:100410009093DB01A093DC01B093DD010895EAE73E
:10042000F0E08081806E8083089501962091E90339
:10043000332727FD30958217930714F080E090E072
:10044000089560E080E00E94C60363E088E40E94B3
:100450002D0362E085E60E942D0362E08CE60E9497
:100460002D0362E08CE60E942D0362E08FE60E947D
:100470002D0364E18AE00E94C60363E087E50E94E1
:100480002D0362E08FE60E942D0362E082E70E9466
:100490002D0362E08CE60E942D0362E084E60E9458
:1004A0002D030E94CB0308958FEF84B915B88AB944
:1004B0001BB80E940F020E949F0260E081E00E9430
:1004C000C60361E08DEC91E00E94B5030E94CB036E
:1004D00080917800909179009093E6038093E503F2
:1004E0008D3B924018F080E48BB9F2CF1BB8F0CF6F
:1004F0002998662319F02B9A90E015C02B98FCCF11
:1005000047E050E0491B5109282F30E002C03595E3
:1005100027954A95E2F720FF02C02C9A01C02C983B
:100520002D9A2D989F5F983058F3299A089560E08E
:100530000E947802089561E00E9478020895CF93A6
:10054000DF93219A229A239A249A259A2A9A299A01
:1005500083EC99E00197F1F700C000002A988BE541
:1005600094E40197F1F700C000002A9A299881E2EB
:100570000E94970283E10E94970286E00E94970200
:1005800082EC0E94970280E20E94970289E00E941A
:10059000970280E80E94970280E40E949702C0E0E0
:1005A000D0E004C080E00E949B022196C83F91E009
:1005B000D907C0F388E00E9497028CE00E9497025E
:1005C000DF91CF91089580E80E94970280E40E9415
:1005D00097021092D7031092D80380E090E005C0F4
:1005E000FC01E152FE4F10820196883F21E0920704
:1005F000B8F30895882311F080E201C084E20E94DC
:1006000097020895262F26952695269590E034E5A5
:10061000239F800D911D1124442379F0677021E000
:1006200030E002C0220F331F6A95E2F7FC01E1526D
:10063000FE4F8081282B20830895677021E030E0F1
:1006400002C0220F331F6A95E2F7FC01E152FE4F10
:1006500020958081282320830895EF92FF920F93A5
:100660001F93CF93DF93E82EF62E00E047C02E2D88
:10067000332727FD309520523109802F6F2D0E949E
:10068000E403F901EE0FFF1FEE0FFF1FE20FF31F50
:10069000E80FF11DE457FF4FE491812F0E94E4031E
:1006A000F0E002C0F595E7958A95E2F7E0FF0AC011
:1006B0006091D8038091D703610F41E0800F0E94C1
:1006C000020309C06091D8038091D703610F40E015
:1006D000800F0E9402031F5F01C010E0212F30E055
:1006E000CE01880F991F880F991F880F991F8C1BA7
:1006F0009D0B281739070CF4BACF0F5F202F30E07D
:10070000CF2DD0E0CE01880F991F880F991F8C0F35
:100710009D1F281739070CF3E7EDF3E08F2D880FA5
:10072000880F8F0D9081890F8F5F8083843570F0E3
:100730001092D703E8EDF3E08F2D880F880F880F14
:10074000982F9F198081890F8F5F80838091D803B4
:10075000803320F01092D7031092D803DF91CF910D
:100760001F910F91FF90EF9008951F93CF93DF9308
:10077000EC01162F04C02196612F0E942D03888161
:100780008111F9CFDF91CF911F9108958093D70305
:100790006093D8030895CF93DF9380E80E94970277
:1007A00080E40E949702C0E0D0E007C0FE01E15261
:1007B000FE4F80810E949B022196C83F81E0D807AE
:1007C000A8F3DF91CF910895991B79E004C0991F98
:1007D000961708F0961B881F7A95C9F7809508959B
:0407E000F894FFCFBB
:1007E40001010102020401010203010202040604E0
:1007F40002040404040406040204040404040600B9
:1008040002000204030100010200020403010006C5
:1008140005030402030100060503040302010001A9
:100824000001000500050006000600050505050495
:10083400000400030003000200020001010101059D
:100844000005000400040003000300020202020584
:100854000005000400040003000300020202020178
:100864000001000500050006000600050505050455
:100874000004000300030002000200010101010062
:10088400000000A4D082437BD49243A4D0A443713B
:100894009DAE430000C4430000DC43A4F0F64300D3
:1008A400D002440100000061090ABC020148656CE1
:0A08B4006C6F20776F726C642100F6
:00000001FF
