:100000000C9446000C9465000C9465000C946500FB
:100010000C9465000C9465000C9465000C946500CC
:100020000C9465000C9465000C9465000C946500BC
:100030000C9465000C948E010C9465000C94650082
:100040000C9465000C9465000C9465000C9465009C
:100050000C9465000C9465000C9465000C9465008C
:100060000C9465000C9465000C9465000C9465007C
:100070000C9465000C9465000C9465000C9465006C
:100080000C9465000C9465000C94650011241FBE4F
:10009000CFEFD0E4DEBFCDBF11E0A0E0B1E0EEEEE7
:1000A000F6E000E00BBF02C007900D92A830B10748
:1000B000D9F711E0A8E0B1E001C01D92AF31B1075E
:1000C000E1F70E94E3010C9475030C9400002C9856
:1000D00008952C9A089583EB84B9289A26982C9A2F
:1000E00081E58CBD08958FEF8EBD0DB407FEFDCF69
:1000F0008EB508958EBD0DB407FEFDCF0895CF9245
:10010000DF92EF92FF926B017C0120910D01309103
:100110000E0140910F01509110010E94FC018823B3
:1001200009F458C020E030E0A901C701B6010E94DF
:10013000FC01811106C0E1E9F0E0808188708083D4
:1001400005C0E1E9F0E080818360808328E539E340
:1001500044E75FE3C701B6010E94FC0188233CF439
:100160008FEF9FEF909399008093980027C020E035
:1001700034E244EF56E4C701B6010E940E0318169C
:100180002CF4109299001092980018C020E030E0F2
:1001900040E053E4C701B6010E9412039B01AC0189
:1001A00060E074E284EF9AE40E9400020E94680218
:1001B00061507109709399006093980010929500B6
:1001C00010929400C0920D01D0920E01E0920F01A6
:1001D000F0921001FF90EF90DF90CF90089580E4AF
:1001E000809390008BE08093910060E070E0CB0101
:1001F0000E947F000895109290001092910008953F
:100200008BE0809381008DE790E09093890080934C
:10021000880082E080936F00109285001092840025
:100220008091000190910101A0910201B091030120
:100230008093080190930901A0930A01B0930B01E8
:100240008FB780688FBF08951092810008956093E2
:100250000001709301018093020190930301609368
:1002600008017093090180930A0190930B0108958E
:10027000EF92FF921F93CF93DF9381E080930C0165
:1002800010E043C0C12FD0E0CE01880F991F8C0F22
:100290009D1F880F991F880F991FFC01EF5EFE4F6D
:1002A000468157816085718582819381A481B58162
:1002B000481759076A077B0778F07F01DF0102843E
:1002C000F385E02D8D919C910995F70191838083B1
:1002D00016821782108611869E01220F331FC901D4
:1002E0008C0F9D1F880F991F880F991FFC01EF5ECF
:1002F000FE4F86819781A085B1850196A11DB11D14
:1003000086839783A087B1871F5F112309F4BACF33
:10031000DF91CF911F91FF90EF9008951F920F9260
:100320000FB60F9211240BB60F922F933F934F935A
:100330005F936F937F938F939F93AF93BF93EF934D
:10034000FF938091080190910901A0910A01B09159
:100350000B010197A109B10980930801909309014C
:10036000A0930A01B0930B01892B8A2B8B2B91F45C
:100370000E9438018091000190910101A091020139
:10038000B09103018093080190930901A0930A01A1
:10039000B0930B01FF91EF91BF91AF919F918F911E
:1003A0007F916F915F914F913F912F910F900BBE75
:1003B0000F900FBE0F901F901895EAE7F0E0808134
:1003C000806E808308958FEF84B915B88AB91BB801
:1003D0000E94DD010E94EF008091780090917900E9
:1003E00090931E0180931D018D3B924018F080E494
:1003F0008BB9F2CF1BB8F0CF9CD008F481E0089500
:100400000CD0D2C0CAD040F0C1D030F021F45F3F50
:1004100019F0B3C05111FCC0B6C0D7D098F39923DE
:10042000C9F35523B1F3951B550BBB27AA276217B8
:100430007307840738F09F5F5F4F220F331F441FFD
:10044000AA1FA9F333D00E2E3AF0E0E830D0915035
:100450005040E695001CCAF729D0FE2F27D0660F22
:10046000771F881FBB1F261737074807AB07B0E861
:1004700009F0BB0B802DBF01FF2793585F4F2AF077
:100480009E3F510568F079C0C3C05F3FECF3983ED2
:10049000DCF3869577956795B795F7959F5FC9F7D4
:1004A000880F911D9695879597F90895E1E0660F5D
:1004B000771F881FBB1F621773078407BA0720F0D6
:1004C000621B730B840BBA0BEE1F88F7E09508953F
:1004D00004D06894B1119CC008957FD088F09F57D4
:1004E00090F0B92F9927B751A0F0D1F0660F771F80
:1004F000881F991F1AF0BA95C9F712C0B13081F060
:1005000086D0B1E0089583C0672F782F8827B85F21
:1005100039F0B93FCCF3869577956795B395D9F7C0
:100520003EF490958095709561957F4F8F4F9F4FCA
:100530000895990F0008550FAA0BE0E8FEEF161674
:100540001706E807F907C0F012161306E407F507C7
:1005500098F0621B730B840B950B39F40A2661F03B
:10056000232B242B252B21F408950A2609F4A140DE
:10057000A6958FEF811D811D089597F99F6780E8EB
:1005800070E060E008959FEF80EC089500240A94E5
:100590001616170618060906089500240A9412165E
:1005A0001306140605060895092E0394000C11F491
:1005B000882352F0BB0F40F4BF2B11F460FF04C03E
:1005C0006F5F7F4F8F4F9F4F089557FD9058440F97
:1005D000551F59F05F3F71F04795880F97FB991FA2
:1005E00061F09F3F79F0879508951216130614065F
:1005F000551FF2CF4695F1DF08C0161617061806EC
:10060000991FF1CF86957105610508940895E894C6
:10061000BB2766277727CB0197F908958ADF08F46F
:100620008FEF08950BD0C0CFB1DF28F0B6DF18F000
:10063000952309F0A2CFA7CF1124EACFC6DFA0F3FC
:10064000959FD1F3950F50E0551F629FF001729F67
:10065000BB27F00DB11D639FAA27F00DB11DAA1F86
:10066000649F6627B00DA11D661F829F2227B00DD3
:10067000A11D621F739FB00DA11D621F839FA00D5E
:10068000611D221F749F3327A00D611D231F849FAE
:10069000600D211D822F762F6A2F11249F57504005
:1006A0008AF0E1F088234AF0EE0FFF1FBB1F661FA0
:1006B000771F881F91505040A9F79E3F510570F059
:1006C0005CCFA6CF5F3FECF3983EDCF38695779541
:1006D0006795B795F795E7959F5FC1F7FE2B880F54
:0E06E000911D9695879597F90895F894FFCF90
:0806EE00010000000ABC02013A
:00000001FF
