:100000000C943D010C945C010C945C010C945C011B
:100010000C945C010C945C010C945C010C945C01EC
:100020000C945C010C945C010C945C010C945C01DC
:100030000C945C010C945C010C945C010C945C01CC
:100040000C945C010C945C010C945C010C945C01BC
:100050000C945C010C945C010C945C010C945C01AC
:100060000C945C010C945C010C945C010C945C019C
:100070000C945C010C945C010C945C010C945C018C
:100080000C945C010C945C010C945C01BC06C406ED
:10009000CD06DC06E306EA06F106000000000000DB
:1000A000005F00000007000700147F147F14242A5B
:1000B0007F2A122313086462364955225000050333
:1000C0000000001C2241000041221C0014083E08D0
:1000D0001408083E08080050300000080808080806
:1000E000006060000020100804023E5149453E00B7
:1000F000427F400042615149462141454B3118142D
:10010000127F1027454545393C4A4949300171095C
:1001100005033649494936064949291E0036360045
:100120000000563600000814224100141414141460
:1001300000412214080201510906324979413E7EEC
:100140001111117E7F494949363E414141227F418B
:1001500041221C7F494949417F090909013E414922
:10016000497A7F0808087F00417F41002040413FD5
:10017000017F081422417F404040407F020C027FF3
:100180007F0408107F3E4141413E7F090909063E38
:100190004151215E7F0919294646494949310101EA
:1001A0007F01013F4040403F1F2040201F3F40381B
:1001B000403F08CA3DCA0807087008076151494511
:1001C00043007F41410002040810200041417F00AC
:1001D00004020102044040404040000102040020AB
:1001E000545454787F484444383844444420384474
:1001F00044487F3854545418087E0901020C525266
:10020000523E7F0804047800447D40002040443D75
:10021000007F1028440000417F40007C04180478CF
:100220007C0804047838444444387C1414140808C6
:100230001414187C7C080404084854545420043FC7
:100240004440203C4040207C1C2040201C3C40304E
:10025000403C44281028440C5050503C4464544CBA
:1002600044000836410000007F00000041360800CD
:100270001008081008000000000011241FBECFEF76
:10028000D0E4DEBFCDBF14E0A0E0B1E0EAE3F8E1E6
:1002900000E00BBF02C007900D92AE30B107D9F756
:1002A00016E0AEE0B4E001C01D92A637B107E1F759
:1002B0000E9439070C941B0C0C940000CF92DF9223
:1002C000EF92FF920F931F93CF93DF93CDB7DEB7DB
:1002D0002C970FB6F894DEBF0FBECDBF809163069A
:1002E00090916406892BE1F560E080E00E94EB08C4
:1002F00087E0E6EEF3E09E012F5F3F4F7901D901E1
:1003000001900D928A95E1F78E01085F1F4F809151
:1003100062064AE050E0B80190E00E94D60BF70177
:1003200001900020E9F73197CF018E199F09F8015C
:1003300001900020E9F73197E01BF10B8E0F9F1F12
:1003400001960E94970A6C01B7010E94CF0BB80179
:10035000C6010E94C40B61E0C6010E94DA0847C0D2
:1003600080916E0690916F06892B31F08091700616
:1003700090917106892BD9F587E0E6EEF3E09E01B6
:100380002F5F3F4F7901D90101900D928A95E1F7D6
:100390008E01085F1F4F809162064AE050E0B8016D
:1003A00090E00E94D60BF70101900020E9F7319709
:1003B000CF018E199F09F80101900020E9F73197CC
:1003C000E01BF10B8E0F9F1F01960E94970A6C0194
:1003D000B7010E94CF0BB801C6010E94C40B68E2AE
:1003E00083E20E94EB0861E0C6010E94DA0880E027
:1003F00090E02C960FB6F894DEBF0FBECDBFDF9114
:10040000CF911F910F91FF90EF90DF90CF900895C3
:10041000CF92DF92EF92FF926B017C01209110044A
:100420003091110440911204509113040E941E094E
:10043000882309F458C020E030E0A901C701B601C3
:100440000E941E09811106C0E1E9F0E080818870F8
:10045000808305C0E1E9F0E080818360808328E546
:1004600039E344E75FE3C701B6010E941E09882310
:100470003CF48FEF9FEF909399008093980027C0F2
:1004800020E034E244EF56E4C701B6010E94300A8E
:1004900018162CF4109299001092980018C020E0C1
:1004A00030E040E053E4C701B6010E94340A9B01EA
:1004B000AC0160E074E284EF9AE40E9422090E9499
:1004C0008A096150710970939900609398001092A5
:1004D000950010929400C0921004D0921104E09202
:1004E0001204F0921304FF90EF90DF90CF900895E4
:1004F000CF93DF93EC018091700690917106892B68
:10050000B9F4C433D105A4F4FE01E75DFE4FE081E8
:10051000F0E0EE0FFF1FEE0FFF1FEE53FC4F608168
:100520007181828193810E940802CE01019620C0D0
:1005300080916E0690916F06892BB9F4CE30D1056B
:10054000B4F4FE01E65EFE4FE081F0E0EE0FFF1F27
:10055000EE0FFF1FEE53FC4F60817181828193810A
:100560000E940802CE01019603C0CE0101C0CE0157
:10057000DF91CF91089580E4809390008BE0809389
:10058000910060E070E0CB010E9408020895109293
:100590009000109291000895EAE7F0E08081806E6B
:1005A00080830895209178003091790030936C0613
:1005B00020936B0681E02D3B324008F080E090E014
:1005C0000895CF93DF932091630630916406213024
:1005D000310589F1009721F08530910561F008C05F
:1005E0000E94D202C1E0892B09F0C0E0D0E005C032
:1005F000EC01219602C0C0E0D0E0209741F481E0F8
:1006000090E0909368068093670680E008C010929F
:10061000680610926706FE01EC5FFE4F808168E27B
:10062000681B8AE00E94EB0861E088E50E945D0893
:100630008C2F9D2F02C080E090E0DF91CF91089534
:10064000209178003091790030936C0620936B06EE
:1006500081E02C32314008F480E090E008950F935F
:100660001F93CF93DF93EC018091690690916A0606
:10067000019709F4B0C0C130D105A1F0C230D10555
:10068000B1F02097F1F40E942003892B29F00E94F9
:10069000D202892B21F015C0C1E0D0E012C0C1E028
:1006A000D0E00FC08FEF8BB9C2E0D0E00AC00E944B
:1006B0002003019731F40E94D202019711F4C0E0A7
:1006C000D0E0C130D10509F056C08FEF8BB9009151
:1006D0006506109166060130110591F020F0023098
:1006E000110549F132C00E94200321E030E0892B3E
:1006F00011F020E030E0309366062093650625C0B7
:100700000E942003892B39F482E090E090936606E2
:10071000809365061AC00E94D202892B29F4109298
:1007200066061092650611C081E090E0909366061F
:10073000809365060AC00E94D202892B11F401E061
:1007400010E010936606009365068091650690910F
:1007500066068130910541F018F0029749F00BC010
:1007600081E680936D0607C080E880936D0603C024
:1007700080E580936D066AE08AE00E94EB0861E004
:100780008DEE93E00E94DA0864E18AE00E94EB08B3
:1007900061E086EF93E00E94DA086EE18AE00E9451
:1007A000EB0861E082E094E00E94DA08609165065F
:1007B000709166066F5F7F4F660F862F880F880FD8
:1007C000680F80E00E94EB0861E08FE60E945D0800
:1007D0008C2F9D2F02C080E090E0DF91CF911F9180
:1007E0000F910895CF93DF9380910F0481110BC077
:1007F00080910E048F5F80930E0485306CF081E051
:1008000080930F0409C080910E04815080930E04E0
:10081000181614F010920F0460E080E00E94EB08BC
:1008200063E08DE40E945D0862E085E70E945D0858
:1008300062E083E70E945D0862E089E60E945D084D
:1008400062E083E60E945D0864E18AE00E94EB08B2
:1008500063E087E40E945D0862E081E60E945D0833
:1008600062E08DE60E945D0862E085E60E945D0818
:10087000CBE119C080910E046C2F681B41E088E425
:100880000E94320880910E046C2F681B41E089E4BD
:100890000E94320880910E046C2F681B41E08AE4AC
:1008A0000E943208CF5FC53228F3C1E409C08091AD
:1008B0000E0468E2681B41E08C2F0E943208CF5F73
:1008C000CB34A8F3C2E411C080910E0467E2681B28
:1008D00041E08C2F0E94320880910E0469E2681B6F
:1008E00041E08C2F0E943208CF5FCA3468F3C3E422
:1008F00011C080910E0466E2681B41E08C2F0E94BB
:10090000320880910E046AE2681B41E08C2F0E943D
:100910003208CF5FC93468F3D0E017C0CBE4CD0F05
:100920000AC080910E046D2F681B655E41E08C2F1C
:100930000E943208CF5F4C2F50E02D2F30E0205B1B
:100940003F4F421753076CF3DF5FD33038F3DF912B
:10095000CF91089560E080E00E94EB0863E087E4B7
:100960000E945D0862E081E60E945D0862E08DE61B
:100970000E945D0862E085E60E945D0864E18AE00D
:100980000E94EB0863E08FE40E945D0862E086E766
:100990000E945D0862E085E60E945D0862E082E7F1
:1009A0000E945D08089560E080E00E94EB0863E02B
:1009B00087E40E945D0862E081E60E945D0862E0D3
:1009C0008DE60E945D0862E085E60E945D0864E1B4
:1009D0008AE00E94EB0863E083E40E945D0862E025
:1009E0008CE60E945D0862E085E60E945D0862E098
:1009F00081E60E945D0862E082E70E945D0808953A
:100A00002FEF280FC2F1332727FD309540916D0657
:100A100050E0241735077CF5409165065091660635
:100A20004115510531F4F901E050FD4F608161300D
:100A300091F04130510531F4F901E150FE4F6081F0
:100A4000613049F042305105B1F4F901E25AFE4FEC
:100A50002081213081F42091670630916806232B94
:100A600031F4209162062F5F2093620604C0109239
:100A70006F0610926E06069620916D0630E0821782
:100A80009307C8F52091650630916606211531055A
:100A900031F4FC01E050FD4F4081413009F121303B
:100AA000310531F4FC01E150FE4F40814130D9F075
:100AB0002230310501F5FC01E25AFE4F8081813080
:100AC000D1F414C0FC01E050FF4F2081222334F404
:100AD000FC01E050FF4F2FE420830895019608C0E9
:100AE00080E090E005C080E090E002C080E090E00F
:100AF000853091053CF308951F93CF93DF932091A8
:100B00006306309164062130310509F442C020911A
:100B10006D0630E08217930724F010927106109250
:100B20007006EC010E940005DD231CF4CE01019645
:100B300034C080916D0690E0C817D9076CF580919C
:100B40006506909166068130910549F018F002978C
:100B500059F00EC0FE01EF59FC4F108109C0FE0193
:100B6000E158FD4F108104C0FE01E255FE4F108197
:100B7000E12FF0E0EE0FFF1FEE0FFF1FEE53FC4FD3
:100B800060817181828193810E940802CE01019669
:100B900004C08AEF9FEF01C0CE01DF91CF911F917A
:100BA0000895CF93DF93EC011816190654F468E208
:100BB0000E94EB0861E08FE60E945D08CE01059778
:100BC00002C08FEF9FEFDF91CF9108950F931F9396
:100BD000CF93DF938091630690916406019799F01B
:100BE000C0E0D0E00DC08E0100501F4FF8018081A1
:100BF000992787FD90950E94D105F8018083219661
:100C0000C530D10584F380E090E0DF91CF911F9152
:100C10000F9108951092620681E090E090936F0624
:100C200080936E069093710680937006909364068D
:100C30008093630690936A06809369069093680692
:100C400080936706109266061092650660E070E079
:100C5000CB010E940802EEE0F6E081E090E0A0E027
:100C6000B0E082839383A483B58386839783A08730
:100C7000B1871182108221EE32E03387228742E071
:100C800050E060E070E046875787608B718B428B45
:100C9000538B648B758B2AEF3FEF358724872CE7C6
:100CA00035E0378B268B828F938FA48FB58F868FFD
:100CB000978FA0A3B1A3118E108E26EE35E033A33B
:100CC00022A386A397A3A0A7B1A782A793A7A4A7AF
:100CD000B5A715A214A220EB36E037A726A782AB52
:100CE00093ABA4ABB5AB86AB97ABA0AFB1AF11AA3A
:100CF00010AA2EE531E033AF22AF80934C069093DB
:100D00004D06A0934E06B0934F06809350069093E5
:100D10005106A0935206B093530615AE14AE2FE2BF
:100D200033E03093550620935406809358069093F1
:100D30005906A0935A06B0935B0680935C06909385
:100D40005D06A0935E06B0935F0610925706109260
:100D5000560688E792E090936106809360060895B6
:100D6000CF93DF93EC018730910508F03FC0FC0181
:100D7000EA5BFF4F0C9415090E94D202C1E0892B57
:100D800009F0C0E0D0E032C086B190E08095909547
:100D900081FF2CC0C2E0D0E029C080916E06909106
:100DA0006F06892B09F18091700690917106892B4D
:100DB000E9F4C4E0D0E01AC00E94D202892BB1F459
:100DC000C5E0D0E013C00E94D202892B79F4C5E0BF
:100DD000D0E00CC00E94D202892B41F0C6E0D0E0E6
:100DE00005C0C0E0D0E002C0C3E0D0E0309902C04E
:100DF000C6E0D0E0C230D105B9F034F4209761F0FC
:100E0000C130D10561F031C0C430D10509F1BCF069
:100E1000C630D10531F129C00E94F20326C01092DC
:100E20006A061092690621C081E090E090936A06FC
:100E300080936906109264061092630616C081E0E2
:100E400090E090936406809363060E94AA040DC00C
:100E500081E090E090936406809363060E94D3043F
:100E600004C00E940A060E94F203CE01DF91CF91D6
:100E7000089511B88FEF82B984B915B817B888B939
:100E80008AB91BB80E94CC020E94BB020E94CF0705
:100E90000E940A060E941308F12C43C0CF2DD0E017
:100EA000CE01880F991F8C0F9D1F880F991F880FE7
:100EB000991FFC01E25FF94F46815781608571857A
:100EC00082819381A481B581481759076A077B07FE
:100ED00078F08F01DF010284F385E02D8D919C91E4
:100EE0000995F801918380831682178210861186F6
:100EF0009E01220F331FC9018C0F9D1F880F991F60
:100F0000880F991FFC01E25FF94F86819781A085C8
:100F1000B1850196A11DB11D86839783A087B187F6
:100F2000F394B6E0BF1508F0B9CF0E94F00820E0B6
:100F300030E00AC0019602C080E090E0883BEBE020
:100F40009E07C4F32F5F3F4F2E313105ACF3A2CF84
:100F50002998662319F02B9A90E015C02B98FCCFA6
:100F600047E050E0491B5109282F30E002C0359579
:100F700027954A95E2F720FF02C02C9A01C02C98D1
:100F80002D9A2D989F5F983058F3299A089560E024
:100F90000E94A807089561E00E94A8070895CF93D2
:100FA000DF93219A229A239A249A259A2A9A299A97
:100FB00083EC99E00197F1F700C000002A988BE5D7
:100FC00094E40197F1F700C000002A9A299881E281
:100FD0000E94C70783E10E94C70786E00E94C707F7
:100FE00082EC0E94C70780E20E94C70789E00E9446
:100FF000C70780E80E94C70780E40E94C707C0E0D7
:10100000D0E004C080E00E94CB072196C83F91E069
:10101000D907C0F388E00E94C7078CE00E94C70789
:10102000DF91CF91089580E80E94C70780E40E9475
:10103000C70710920C0610920D0680E090E005C0E4
:10104000FC01EC5EFB4F10820196883F21E0920785
:10105000B8F30895882311F080E201C084E20E9471
:10106000C7070895262F26952695269590E034E506
:10107000239F800D911D1124442379F0677021E096
:1010800030E002C0220F331F6A95E2F7FC01EC5EEC
:10109000FB4F8081282B20830895677021E030E08A
:1010A00002C0220F331F6A95E2F7FC01EC5EFB4F92
:1010B00020958081282320830895EF92FF920F933B
:1010C0001F93CF93DF93E82E062FF12C3CC02E2DDB
:1010D000332727FD3095205231098F2D602F0E9434
:1010E0000909F901EE0FFF1FEE0FFF1FE20FF31FBB
:1010F000E80FF11DE656FF4FE491812F0E94090988
:10110000F0E002C0F595E7958A95E2F7E0FF09C0A7
:1011100060910D0680910C06610F41E08F0D0E94D9
:1011200032081F5F01C010E0212F30E0CE01880F90
:10113000991F880F991F880F991F8C1B9D0B2817CB
:1011400039072CF2F3942F2D30E0C02FD0E0CE01E0
:10115000880F991F880F991F8C0F9D1F281739071B
:1011600014F3ECE0F6E0802F880F880F800F908159
:10117000890F8F5F8083843570F010920C06EDE04C
:10118000F6E0802F880F880F880F982F901B8081A2
:10119000890F8F5F808380910D06803320F010923D
:1011A0000C0610920D06DF91CF911F910F91FF90C9
:1011B000EF9008951F93CF93DF93EC01162F04C097
:1011C0002196612F0E945D0888818111F9CFDF91FE
:1011D000CF911F91089580930C0660930D0608959A
:1011E000CF93DF9380E80E94C70780E40E94C7077F
:1011F000C0E0D0E007C0FE01EC5EFB4F80810E94A2
:10120000CB072196C83F81E0D807A8F3DF91CF91A3
:101210000895991B79E004C0991F961708F0961B52
:10122000881F7A95C9F780950895EE0FFF1F002457
:10123000001C0BBE0790F691E02D09949CD008F499
:1012400081E008950CD0D2C0CAD040F0C1D030F0B7
:1012500021F45F3F19F0B3C05111FCC0B6C0D7D024
:1012600098F39923C9F35523B1F3951B550BBB276D
:10127000AA2762177307840738F09F5F5F4F220F1A
:10128000331F441FAA1FA9F333D00E2E3AF0E0E813
:1012900030D091505040E695001CCAF729D0FE2F5F
:1012A00027D0660F771F881FBB1F261737074807F1
:1012B000AB07B0E809F0BB0B802DBF01FF279358A7
:1012C0005F4F2AF09E3F510568F079C0C3C05F3F71
:1012D000ECF3983EDCF3869577956795B795F7958F
:1012E0009F5FC9F7880F911D9695879597F9089587
:1012F000E1E0660F771F881FBB1F62177307840723
:10130000BA0720F0621B730B840BBA0BEE1F88F731
:10131000E095089504D06894B1119CC008957FD0E1
:1013200088F09F5790F0B92F9927B751A0F0D1F0CE
:10133000660F771F881F991F1AF0BA95C9F712C058
:10134000B13081F086D0B1E0089583C0672F782F47
:101350008827B85F39F0B93FCCF3869577956795C4
:10136000B395D9F73EF490958095709561957F4F30
:101370008F4F9F4F0895990F0008550FAA0BE0E873
:10138000FEEF16161706E807F907C0F01216130647
:10139000E407F50798F0621B730B840B950B39F487
:1013A0000A2661F0232B242B252B21F408950A26ED
:1013B00009F4A140A6958FEF811D811D089597F92D
:1013C0009F6780E870E060E008959FEF80EC0895EB
:1013D00000240A9416161706180609060895002414
:1013E0000A9412161306140605060895092E03948E
:1013F000000C11F4882352F0BB0F40F4BF2B11F402
:1014000060FF04C06F5F7F4F8F4F9F4F089557FD60
:101410009058440F551F59F05F3F71F04795880F62
:1014200097FB991F61F09F3F79F0879508951216F9
:1014300013061406551FF2CF4695F1DF08C01616A5
:1014400017061806991FF1CF869571056105089456
:101450000895E894BB2766277727CB0197F908956D
:101460008ADF08F48FEF08950BD0C0CFB1DF28F0EA
:10147000B6DF18F0952309F0A2CFA7CF1124EACF49
:10148000C6DFA0F3959FD1F3950F50E0551F629FE3
:10149000F001729FBB27F00DB11D639FAA27F00DCD
:1014A000B11DAA1F649F6627B00DA11D661F829FF4
:1014B0002227B00DA11D621F739FB00DA11D621FD9
:1014C000839FA00D611D221F749F3327A00D611DF6
:1014D000231F849F600D211D822F762F6A2F1124D8
:1014E0009F5750408AF0E1F088234AF0EE0FFF1F2B
:1014F000BB1F661F771F881F91505040A9F79E3F62
:10150000510570F05CCFA6CF5F3FECF3983EDCF363
:10151000869577956795B795F795E7959F5FC1F79E
:10152000FE2B880F911D9695879597F90895CF9377
:10153000DF938230910510F482E090E0E091740630
:10154000F091750620E030E0C0E0D0E0309711F176
:101550004081518148175907C0F04817590761F475
:1015600082819381209719F09B838A832BC090936B
:1015700075068093740626C02115310519F04217AF
:10158000530718F49A01BE01DF01EF010280F381D5
:10159000E02DDCCF2115310509F1281B390B243052
:1015A000310590F412968D919C91139761157105F8
:1015B00021F0FB019383828304C09093750680938E
:1015C0007406FD01329644C0FD01E20FF31F8193C2
:1015D0009193225031092D933C933AC02091720689
:1015E00030917306232B41F420910C0130910D01B1
:1015F000309373062093720620910A0130910B01FB
:101600002115310541F42DB73EB740910E0150919F
:101610000F01241B350BE0917206F0917306E2175F
:10162000F307A0F42E1B3F0B2817390778F0AC0105
:101630004E5F5F4F2417350748F04E0F5F1F5093E2
:101640007306409372068193919302C0E0E0F0E04C
:10165000CF01DF91CF9108950F931F93CF93DF9325
:10166000009709F48CC0FC0132971382128200911A
:101670007406109175060115110581F420813181E0
:10168000820F931F20917206309173062817390735
:1016900079F5F0937306E093720671C0D80140E0CB
:1016A00050E0AE17BF0750F412962D913C9113975E
:1016B000AD012115310509F1D901F3CF9D01DA0101
:1016C0003383228360817181860F971F821793076E
:1016D00069F4EC0128813981260F371F2E5F3F4FB7
:1016E000318320838A819B8193838283452B29F4D4
:1016F000F0937506E093740642C01396FC93EE9344
:101700001297ED01499159919E01240F351FE2175F
:10171000F30771F480819181840F951F02961196D1
:101720009C938E938281938113969C938E931297B0
:10173000E0E0F0E0D80112968D919C91139700970C
:1017400019F0F8018C01F6CF8D919C9198012E5FD4
:101750003F4F820F931F2091720630917306281716
:10176000390769F4309729F41092750610927406BF
:1017700002C0138212821093730600937206DF91E7
:10178000CF911F910F910895FB01DC010D90002076
:10179000E9F7119701900D920020E1F70895FB0100
:1017A000DC0101900D920020E1F70895FB019F01FB
:1017B000E8944230C4F04532B4F44A3029F497FB3F
:1017C0001EF4909581959F4F642F77270E94070CF8
:1017D000805D8A330CF0895D8193CB010097A1F77E
:1017E00016F45DE251931082C9010C94F70BDC01F1
:1017F000FC01672F71917723E1F7329704C07C9148
:101800006D9370836291AE17BF07C8F30895AA1B4A
:10181000BB1B51E107C0AA1FBB1FA617B70710F0DB
:10182000A61BB70B881F991F5A95A9F7809590950D
:0A183000BC01CD010895F894FFCF2C
:10183A00FFFFFFFFFF050A0F0A05000076062000DA
:10184A00054F05062C01BC02070E0000000100012D
:10185A00010101010101010034000000040506072D
:10186A000607080805030303040506070607080810
:10187A000805050504050607060708080503030504
:10188A0004040302020301010108080800500100D0
:10189A00000000000000010000000000000001003C
:1018AA00000000000000010000000000000001002C
:1018BA00000000000000010000000100000001001B
:1018CA00000000000000010000000000000001000C
:1018DA0000000100000001000000010000000100FA
:1018EA0003000000030001000300000003000300DE
:1018FA0003040500030004000405020002000300BB
:10190A00030405000800060606000500000003009F
:10191A00030405000300040004050200020003009A
:10192A0003040200020001010101080808088001FD
:10193A00000000000000000100000000000000019B
:10194A00000000010000000100000000000000018A
:10195A00000000000000000100000000000000017B
:10196A00000000010000000100000000000000016A
:10197A00000000000000000100000000000000015B
:10198A00000000010000000100000000000000014A
:10199A00000000000000000100000000000000013B
:1019AA000000000100000001000000000000000328
:1019BA0000030003030300030003000303030003FF
:1019CA0000050001010102030303030000000004F3
:1019DA0000040004000400040003000300030003E1
:1019EA0003020002020303020202020505050503BF
:1019FA0000030003030300030003000303030003BF
:101A0A0000050001010102030303030000000004B2
:101A1A00000400040004000400030003000300059E
:101A2A000005050404020201010101080808086111
:101A3A00000100000000000000010000000000009A
:101A4A000001000000000000000100000001000089
:101A5A000001000000000000000100000001000079
:101A6A000001000000000000000100000001000069
:101A7A000001000000000000000100000001000059
:101A8A000001000000000000000100000001000049
:101A9A00000001000100050005000600060005051A
:101AAA00050504000400030003000200020001010E
:101ABA0001010500050004000400030003000202FE
:101ACA0002020500050004000400030003000202EC
:101ADA0002020100010005000500060006000505D6
:101AEA0005050400040003000300020002000101CE
:101AFA00010100000000A4D082437BD49243A4D009
:101B0A00A443719DAE430000C4430000DC43A4F02B
:101B1A00F64300D0024453636F72653A0041424370
:101B2A0020536F6E67004A696E676C652042656C68
:0E1B3A006C00466C6F77657220536F6E67000B
:00000001FF
